{"abi":[{"type":"constructor","inputs":[],"stateMutability":"nonpayable"},{"type":"function","name":"allowance","inputs":[{"name":"owner","type":"address","internalType":"address"},{"name":"spender","type":"address","internalType":"address"}],"outputs":[{"name":"","type":"uint256","internalType":"uint256"}],"stateMutability":"view"},{"type":"function","name":"approve","inputs":[{"name":"spender","type":"address","internalType":"address"},{"name":"value","type":"uint256","internalType":"uint256"}],"outputs":[{"name":"","type":"bool","internalType":"bool"}],"stateMutability":"nonpayable"},{"type":"function","name":"balanceOf","inputs":[{"name":"account","type":"address","internalType":"address"}],"outputs":[{"name":"","type":"uint256","internalType":"uint256"}],"stateMutability":"view"},{"type":"function","name":"burnAndClaim","inputs":[{"name":"amountToBurn","type":"uint256","internalType":"uint256"},{"name":"tokens","type":"address[]","internalType":"address[]"}],"outputs":[],"stateMutability":"nonpayable"},{"type":"function","name":"decimals","inputs":[],"outputs":[{"name":"","type":"uint8","internalType":"uint8"}],"stateMutability":"view"},{"type":"function","name":"initialize","inputs":[{"name":"initialOwner","type":"address","internalType":"address"},{"name":"initialSupply","type":"uint256","internalType":"uint256"}],"outputs":[],"stateMutability":"nonpayable"},{"type":"function","name":"name","inputs":[],"outputs":[{"name":"","type":"string","internalType":"string"}],"stateMutability":"view"},{"type":"function","name":"owner","inputs":[],"outputs":[{"name":"","type":"address","internalType":"address"}],"stateMutability":"view"},{"type":"function","name":"pause","inputs":[],"outputs":[],"stateMutability":"nonpayable"},{"type":"function","name":"paused","inputs":[],"outputs":[{"name":"","type":"bool","internalType":"bool"}],"stateMutability":"view"},{"type":"function","name":"previewBurnAndClaim","inputs":[{"name":"amountToBurn","type":"uint256","internalType":"uint256"},{"name":"tokens","type":"address[]","internalType":"address[]"}],"outputs":[{"name":"amounts","type":"uint256[]","internalType":"uint256[]"}],"stateMutability":"view"},{"type":"function","name":"renounceOwnership","inputs":[],"outputs":[],"stateMutability":"nonpayable"},{"type":"function","name":"symbol","inputs":[],"outputs":[{"name":"","type":"string","internalType":"string"}],"stateMutability":"view"},{"type":"function","name":"totalSupply","inputs":[],"outputs":[{"name":"","type":"uint256","internalType":"uint256"}],"stateMutability":"view"},{"type":"function","name":"transfer","inputs":[{"name":"to","type":"address","internalType":"address"},{"name":"value","type":"uint256","internalType":"uint256"}],"outputs":[{"name":"","type":"bool","internalType":"bool"}],"stateMutability":"nonpayable"},{"type":"function","name":"transferFrom","inputs":[{"name":"from","type":"address","internalType":"address"},{"name":"to","type":"address","internalType":"address"},{"name":"value","type":"uint256","internalType":"uint256"}],"outputs":[{"name":"","type":"bool","internalType":"bool"}],"stateMutability":"nonpayable"},{"type":"function","name":"transferOwnership","inputs":[{"name":"newOwner","type":"address","internalType":"address"}],"outputs":[],"stateMutability":"nonpayable"},{"type":"function","name":"unpause","inputs":[],"outputs":[],"stateMutability":"nonpayable"},{"type":"event","name":"Approval","inputs":[{"name":"owner","type":"address","indexed":true,"internalType":"address"},{"name":"spender","type":"address","indexed":true,"internalType":"address"},{"name":"value","type":"uint256","indexed":false,"internalType":"uint256"}],"anonymous":false},{"type":"event","name":"Initialized","inputs":[{"name":"version","type":"uint64","indexed":false,"internalType":"uint64"}],"anonymous":false},{"type":"event","name":"OwnershipTransferred","inputs":[{"name":"previousOwner","type":"address","indexed":true,"internalType":"address"},{"name":"newOwner","type":"address","indexed":true,"internalType":"address"}],"anonymous":false},{"type":"event","name":"Paused","inputs":[{"name":"account","type":"address","indexed":false,"internalType":"address"}],"anonymous":false},{"type":"event","name":"TokenClaimed","inputs":[{"name":"user","type":"address","indexed":true,"internalType":"address"},{"name":"claimedToken","type":"address","indexed":true,"internalType":"address"},{"name":"amountBurned","type":"uint256","indexed":false,"internalType":"uint256"},{"name":"amountClaimed","type":"uint256","indexed":false,"internalType":"uint256"}],"anonymous":false},{"type":"event","name":"Transfer","inputs":[{"name":"from","type":"address","indexed":true,"internalType":"address"},{"name":"to","type":"address","indexed":true,"internalType":"address"},{"name":"value","type":"uint256","indexed":false,"internalType":"uint256"}],"anonymous":false},{"type":"event","name":"Unpaused","inputs":[{"name":"account","type":"address","indexed":false,"internalType":"address"}],"anonymous":false},{"type":"error","name":"ERC20InsufficientAllowance","inputs":[{"name":"spender","type":"address","internalType":"address"},{"name":"allowance","type":"uint256","internalType":"uint256"},{"name":"needed","type":"uint256","internalType":"uint256"}]},{"type":"error","name":"ERC20InsufficientBalance","inputs":[{"name":"sender","type":"address","internalType":"address"},{"name":"balance","type":"uint256","internalType":"uint256"},{"name":"needed","type":"uint256","internalType":"uint256"}]},{"type":"error","name":"ERC20InvalidApprover","inputs":[{"name":"approver","type":"address","internalType":"address"}]},{"type":"error","name":"ERC20InvalidReceiver","inputs":[{"name":"receiver","type":"address","internalType":"address"}]},{"type":"error","name":"ERC20InvalidSender","inputs":[{"name":"sender","type":"address","internalType":"address"}]},{"type":"error","name":"ERC20InvalidSpender","inputs":[{"name":"spender","type":"address","internalType":"address"}]},{"type":"error","name":"EnforcedPause","inputs":[]},{"type":"error","name":"ExpectedPause","inputs":[]},{"type":"error","name":"InvalidBurnAmount","inputs":[]},{"type":"error","name":"InvalidInitialization","inputs":[]},{"type":"error","name":"InvalidTokenAddress","inputs":[]},{"type":"error","name":"NoSupply","inputs":[]},{"type":"error","name":"NoTokensSelected","inputs":[]},{"type":"error","name":"NoTokensToClaim","inputs":[]},{"type":"error","name":"NotInitializing","inputs":[]},{"type":"error","name":"OwnableInvalidOwner","inputs":[{"name":"owner","type":"address","internalType":"address"}]},{"type":"error","name":"OwnableUnauthorizedAccount","inputs":[{"name":"account","type":"address","internalType":"address"}]},{"type":"error","name":"ReentrancyGuardReentrantCall","inputs":[]},{"type":"error","name":"TokensMustBeSortedAndUnique","inputs":[]},{"type":"error","name":"TransferFailed","inputs":[]}],"bytecode":{"object":"0x6080604052348015600e575f80fd5b5060156019565b60c9565b7ff0c57e16840df040f15088dc2f81fe391c3923bec73e23a9662efc9c229c6a00805468010000000000000000900460ff161560685760405163f92ee8a960e01b815260040160405180910390fd5b80546001600160401b039081161460c65780546001600160401b0319166001600160401b0390811782556040519081527fc7f505b2f371ae2175ee4913f4499e1f2633a7b5936321eed1cdaeb6115181d29060200160405180910390a15b50565b6117bd806100d65f395ff3fe608060405234801561000f575f80fd5b5060043610610111575f3560e01c80638456cb591161009e578063a9059cbb1161006e578063a9059cbb14610263578063cd6dc68714610276578063dd62ed3e14610289578063f0e7f3731461029c578063f2fde38b146102bc575f80fd5b80638456cb59146102065780638da5cb5b1461020e57806395d89b41146102485780639ebfab6f14610250575f80fd5b8063313ce567116100e4578063313ce5671461019a5780633f4ba83a146101a95780635c975abb146101b357806370a08231146101ca578063715018a6146101fe575f80fd5b806306fdde0314610115578063095ea7b31461013357806318160ddd1461015657806323b872dd14610187575b5f80fd5b61011d6102cf565b60405161012a9190611372565b60405180910390f35b6101466101413660046113c2565b61038f565b604051901515815260200161012a565b7f52c63247e1f47db19d5ce0460030c497f067ca4cebf71ba98eeadabe20bace02545b60405190815260200161012a565b6101466101953660046113ea565b6103a8565b6040516012815260200161012a565b6101b16103cd565b005b5f805160206117688339815191525460ff16610146565b6101796101d8366004611424565b6001600160a01b03165f9081525f80516020611748833981519152602052604090205490565b6101b16103df565b6101b16103f0565b7f9016d09d72d40fdae2fd8ceac6b6234c7706214fd39c1cd1e609a0528c199300546040516001600160a01b03909116815260200161012a565b61011d610400565b6101b161025e36600461143d565b61043e565b6101466102713660046113c2565b610487565b6101b16102843660046113c2565b610494565b6101796102973660046114b7565b6105ec565b6102af6102aa36600461143d565b610635565b60405161012a91906114e8565b6101b16102ca366004611424565b61081a565b7f52c63247e1f47db19d5ce0460030c497f067ca4cebf71ba98eeadabe20bace0380546060915f805160206117488339815191529161030d9061152a565b80601f01602080910402602001604051908101604052809291908181526020018280546103399061152a565b80156103845780601f1061035b57610100808354040283529160200191610384565b820191905f5260205f20905b81548152906001019060200180831161036757829003601f168201915b505050505091505090565b5f3361039c81858561085c565b60019150505b92915050565b5f336103b5858285610869565b6103c08585856108cd565b60019150505b9392505050565b6103d561092a565b6103dd610985565b565b6103e761092a565b6103dd5f6109e4565b6103f861092a565b6103dd610a54565b7f52c63247e1f47db19d5ce0460030c497f067ca4cebf71ba98eeadabe20bace0480546060915f805160206117488339815191529161030d9061152a565b610446610a9c565b61044e610acc565b610459838383610b16565b61048260017f9b779b17422d0df92223018b32b4d1fa46e071723d6817e2486d003becc55f0055565b505050565b5f3361039c8185856108cd565b5f61049d610fb9565b805490915060ff600160401b820416159067ffffffffffffffff165f811580156104c45750825b90505f8267ffffffffffffffff1660011480156104e05750303b155b9050811580156104ee575080155b1561050c5760405163f92ee8a960e01b815260040160405180910390fd5b845467ffffffffffffffff19166001178555831561053657845460ff60401b1916600160401b1785555b61057a60405180604001604052806005815260200164416d69636160d81b81525060405180604001604052806005815260200164414d49434160d81b815250610fe1565b61058387610ff7565b61058b611008565b610593611018565b61059d8787611020565b83156105e357845460ff60401b19168555604051600181527fc7f505b2f371ae2175ee4913f4499e1f2633a7b5936321eed1cdaeb6115181d29060200160405180910390a15b50505050505050565b6001600160a01b039182165f9081527f52c63247e1f47db19d5ce0460030c497f067ca4cebf71ba98eeadabe20bace016020908152604080832093909416825291909152205490565b60605f6106607f52c63247e1f47db19d5ce0460030c497f067ca4cebf71ba98eeadabe20bace025490565b905080158061066d575084155b156106bd578267ffffffffffffffff81111561068b5761068b611562565b6040519080825280602002602001820160405280156106b4578160200160208202803683370190505b509150506103c6565b8267ffffffffffffffff8111156106d6576106d6611562565b6040519080825280602002602001820160405280156106ff578160200160208202803683370190505b5091505f5b83811015610811575f85858381811061071f5761071f611576565b90506020020160208101906107349190611424565b6001600160a01b031614610809575f85858381811061075557610755611576565b905060200201602081019061076a9190611424565b6040516370a0823160e01b81523060048201526001600160a01b0391909116906370a0823190602401602060405180830381865afa1580156107ae573d5f803e3d5ffd5b505050506040513d601f19601f820116820180604052508101906107d2919061158a565b9050826107df88836115b5565b6107e991906115cc565b8483815181106107fb576107fb611576565b602002602001018181525050505b600101610704565b50509392505050565b61082261092a565b6001600160a01b03811661085057604051631e4fbdf760e01b81525f60048201526024015b60405180910390fd5b610859816109e4565b50565b6104828383836001611054565b5f61087484846105ec565b90505f198110156108c757818110156108b957604051637dc7a0d960e11b81526001600160a01b03841660048201526024810182905260448101839052606401610847565b6108c784848484035f611054565b50505050565b6001600160a01b0383166108f657604051634b637e8f60e11b81525f6004820152602401610847565b6001600160a01b03821661091f5760405163ec442f0560e01b81525f6004820152602401610847565b610482838383611138565b3361095c7f9016d09d72d40fdae2fd8ceac6b6234c7706214fd39c1cd1e609a0528c199300546001600160a01b031690565b6001600160a01b0316146103dd5760405163118cdaa760e01b8152336004820152602401610847565b61098d611271565b5f80516020611768833981519152805460ff191681557f5db9ee0a495bf2e6ff9c91a7834c1ba4fdd244a5e8aa4e537bd38aeae4b073aa335b6040516001600160a01b03909116815260200160405180910390a150565b7f9016d09d72d40fdae2fd8ceac6b6234c7706214fd39c1cd1e609a0528c19930080546001600160a01b031981166001600160a01b03848116918217845560405192169182907f8be0079c531659141344cd1fd0a4f28419497f9722a3daafe3b4186f6b6457e0905f90a3505050565b610a5c610a9c565b5f80516020611768833981519152805460ff191660011781557f62e78cea01bee320cd4e420270b5ea74000d11b0c9f74754ebdbfc544b05a258336109c6565b5f805160206117688339815191525460ff16156103dd5760405163d93c066560e01b815260040160405180910390fd5b7f9b779b17422d0df92223018b32b4d1fa46e071723d6817e2486d003becc55f00805460011901610b1057604051633ee5aeb560e01b815260040160405180910390fd5b60029055565b825f03610b36576040516302075cc160e41b815260040160405180910390fd5b5f819003610b5757604051633b02496b60e01b815260040160405180910390fd5b60015b81811015610bf2578282610b6f6001846115eb565b818110610b7e57610b7e611576565b9050602002016020810190610b939190611424565b6001600160a01b0316838383818110610bae57610bae611576565b9050602002016020810190610bc39190611424565b6001600160a01b031611610bea57604051631c5e2e8560e11b815260040160405180910390fd5b600101610b5a565b505f610c1c7f52c63247e1f47db19d5ce0460030c497f067ca4cebf71ba98eeadabe20bace025490565b9050805f03610c3e57604051632b5131d760e21b815260040160405180910390fd5b610c4833856112a0565b5f8267ffffffffffffffff811115610c6257610c62611562565b604051908082528060200260200182016040528015610c8b578160200160208202803683370190505b5090505f8367ffffffffffffffff811115610ca857610ca8611562565b604051908082528060200260200182016040528015610cd1578160200160208202803683370190505b5090505f805b85811015610e80575f878783818110610cf257610cf2611576565b9050602002016020810190610d079190611424565b90506001600160a01b038116610d3057604051630f58058360e11b815260040160405180910390fd5b6040516370a0823160e01b81523060048201525f906001600160a01b038316906370a0823190602401602060405180830381865afa158015610d74573d5f803e3d5ffd5b505050506040513d601f19601f82011682018060405250810190610d98919061158a565b9050805f03610da8575050610e78565b5f87610db48c846115b5565b610dbe91906115cc565b9050805f03610dcf57505050610e78565b82878681518110610de257610de2611576565b60200260200101906001600160a01b031690816001600160a01b03168152505080868681518110610e1557610e15611576565b602090810291909101015284610e2a816115fe565b604080518e8152602081018590529197506001600160a01b038616925033917f29842d15961c304dad3345dcde04db3059d13a4455ed0646e5daf7c993a04bc6910160405180910390a35050505b600101610cd7565b50805f03610ea05760405162f3f86160e41b815260040160405180910390fd5b8083528082525f5b81811015610f8957838181518110610ec257610ec2611576565b60200260200101516001600160a01b031663a9059cbb33858481518110610eeb57610eeb611576565b60200260200101516040518363ffffffff1660e01b8152600401610f249291906001600160a01b03929092168252602082015260400190565b6020604051808303815f875af1158015610f40573d5f803e3d5ffd5b505050506040513d601f19601f82011682018060405250810190610f649190611616565b610f81576040516312171d8360e31b815260040160405180910390fd5b600101610ea8565b5050505050505050565b60017f9b779b17422d0df92223018b32b4d1fa46e071723d6817e2486d003becc55f0055565b5f807ff0c57e16840df040f15088dc2f81fe391c3923bec73e23a9662efc9c229c6a006103a2565b610fe96112d4565b610ff382826112f9565b5050565b610fff6112d4565b61085981611349565b6110106112d4565b6103dd611351565b6103dd6112d4565b6001600160a01b0382166110495760405163ec442f0560e01b81525f6004820152602401610847565b610ff35f8383611138565b5f805160206117488339815191526001600160a01b03851661108b5760405163e602df0560e01b81525f6004820152602401610847565b6001600160a01b0384166110b457604051634a1406b160e11b81525f6004820152602401610847565b6001600160a01b038086165f9081526001830160209081526040808320938816835292905220839055811561113157836001600160a01b0316856001600160a01b03167f8c5be1e5ebec7d5bd14f71427d1e84f3dd0314c0f7b2291e5b200ac8c7c3b9258560405161112891815260200190565b60405180910390a35b5050505050565b5f805160206117488339815191526001600160a01b0384166111725781816002015f8282546111679190611635565b909155506111e29050565b6001600160a01b0384165f90815260208290526040902054828110156111c45760405163391434e360e21b81526001600160a01b03861660048201526024810182905260448101849052606401610847565b6001600160a01b0385165f9081526020839052604090209083900390555b6001600160a01b03831661120057600281018054839003905561121e565b6001600160a01b0383165f9081526020829052604090208054830190555b826001600160a01b0316846001600160a01b03167fddf252ad1be2c89b69c2b068fc378daa952ba7f163c4a11628f55a4df523b3ef8460405161126391815260200190565b60405180910390a350505050565b5f805160206117688339815191525460ff166103dd57604051638dfc202b60e01b815260040160405180910390fd5b6001600160a01b0382166112c957604051634b637e8f60e11b81525f6004820152602401610847565b610ff3825f83611138565b6112dc611359565b6103dd57604051631afcd79f60e31b815260040160405180910390fd5b6113016112d4565b5f805160206117488339815191527f52c63247e1f47db19d5ce0460030c497f067ca4cebf71ba98eeadabe20bace0361133a848261168c565b50600481016108c7838261168c565b6108226112d4565b610f936112d4565b5f611362610fb9565b54600160401b900460ff16919050565b602081525f82518060208401528060208501604085015e5f604082850101526040601f19601f83011684010191505092915050565b80356001600160a01b03811681146113bd575f80fd5b919050565b5f80604083850312156113d3575f80fd5b6113dc836113a7565b946020939093013593505050565b5f805f606084860312156113fc575f80fd5b611405846113a7565b9250611413602085016113a7565b929592945050506040919091013590565b5f60208284031215611434575f80fd5b6103c6826113a7565b5f805f6040848603121561144f575f80fd5b83359250602084013567ffffffffffffffff81111561146c575f80fd5b8401601f8101861361147c575f80fd5b803567ffffffffffffffff811115611492575f80fd5b8660208260051b84010111156114a6575f80fd5b939660209190910195509293505050565b5f80604083850312156114c8575f80fd5b6114d1836113a7565b91506114df602084016113a7565b90509250929050565b602080825282518282018190525f918401906040840190835b8181101561151f578351835260209384019390920191600101611501565b509095945050505050565b600181811c9082168061153e57607f821691505b60208210810361155c57634e487b7160e01b5f52602260045260245ffd5b50919050565b634e487b7160e01b5f52604160045260245ffd5b634e487b7160e01b5f52603260045260245ffd5b5f6020828403121561159a575f80fd5b5051919050565b634e487b7160e01b5f52601160045260245ffd5b80820281158282048414176103a2576103a26115a1565b5f826115e657634e487b7160e01b5f52601260045260245ffd5b500490565b818103818111156103a2576103a26115a1565b5f6001820161160f5761160f6115a1565b5060010190565b5f60208284031215611626575f80fd5b815180151581146103c6575f80fd5b808201808211156103a2576103a26115a1565b601f82111561048257805f5260205f20601f840160051c8101602085101561166d5750805b601f840160051c820191505b81811015611131575f8155600101611679565b815167ffffffffffffffff8111156116a6576116a6611562565b6116ba816116b4845461152a565b84611648565b6020601f8211600181146116ec575f83156116d55750848201515b5f19600385901b1c1916600184901b178455611131565b5f84815260208120601f198516915b8281101561171b57878501518255602094850194600190920191016116fb565b508482101561173857868401515f19600387901b60f8161c191681555b50505050600190811b0190555056fe52c63247e1f47db19d5ce0460030c497f067ca4cebf71ba98eeadabe20bace00cd5ed15c6e187e77e9aee88184c21f4f2182ab5827cb3b7e07fbedcd63f03300a26469706673582212201cea200329b9ea9cb7cfe5e4ad36034037f766c6d30523874022049a65ee038f64736f6c634300081a0033","linkReferences":{}},"methodIdentifiers":{"allowance(address,address)":"dd62ed3e","approve(address,uint256)":"095ea7b3","balanceOf(address)":"70a08231","burnAndClaim(uint256,address[])":"9ebfab6f","decimals()":"313ce567","initialize(address,uint256)":"cd6dc687","name()":"06fdde03","owner()":"8da5cb5b","pause()":"8456cb59","paused()":"5c975abb","previewBurnAndClaim(uint256,address[])":"f0e7f373","renounceOwnership()":"715018a6","symbol()":"95d89b41","totalSupply()":"18160ddd","transfer(address,uint256)":"a9059cbb","transferFrom(address,address,uint256)":"23b872dd","transferOwnership(address)":"f2fde38b","unpause()":"3f4ba83a"},"storageLayout":{"storage":[{"astId":85572,"contract":"src/AmicaToken.sol:AmicaToken","label":"__gap","offset":0,"slot":"0","type":"t_array(t_uint256)50_storage"}],"types":{"t_array(t_uint256)50_storage":{"encoding":"inplace","label":"uint256[50]","numberOfBytes":"1600","base":"t_uint256"},"t_uint256":{"encoding":"inplace","label":"uint256","numberOfBytes":"32"}}},"id":209}