{"abi":[{"type":"constructor","inputs":[],"stateMutability":"nonpayable"},{"type":"function","name":"bridgedAmicaToken","inputs":[],"outputs":[{"name":"","type":"address","internalType":"contract IERC20"}],"stateMutability":"view"},{"type":"function","name":"bridgedBalance","inputs":[],"outputs":[{"name":"","type":"uint256","internalType":"uint256"}],"stateMutability":"view"},{"type":"function","name":"emergencyWithdraw","inputs":[{"name":"token","type":"address","internalType":"address"},{"name":"to","type":"address","internalType":"address"},{"name":"amount","type":"uint256","internalType":"uint256"}],"outputs":[],"stateMutability":"nonpayable"},{"type":"function","name":"initialize","inputs":[{"name":"_bridgedAmicaToken","type":"address","internalType":"address"},{"name":"_nativeAmicaToken","type":"address","internalType":"address"},{"name":"_owner","type":"address","internalType":"address"}],"outputs":[],"stateMutability":"nonpayable"},{"type":"function","name":"nativeAmicaToken","inputs":[],"outputs":[{"name":"","type":"address","internalType":"contract IAmicaToken"}],"stateMutability":"view"},{"type":"function","name":"owner","inputs":[],"outputs":[{"name":"","type":"address","internalType":"address"}],"stateMutability":"view"},{"type":"function","name":"pause","inputs":[],"outputs":[],"stateMutability":"nonpayable"},{"type":"function","name":"paused","inputs":[],"outputs":[{"name":"","type":"bool","internalType":"bool"}],"stateMutability":"view"},{"type":"function","name":"renounceOwnership","inputs":[],"outputs":[],"stateMutability":"nonpayable"},{"type":"function","name":"totalBridgedIn","inputs":[],"outputs":[{"name":"","type":"uint256","internalType":"uint256"}],"stateMutability":"view"},{"type":"function","name":"totalBridgedOut","inputs":[],"outputs":[{"name":"","type":"uint256","internalType":"uint256"}],"stateMutability":"view"},{"type":"function","name":"transferOwnership","inputs":[{"name":"newOwner","type":"address","internalType":"address"}],"outputs":[],"stateMutability":"nonpayable"},{"type":"function","name":"unpause","inputs":[],"outputs":[],"stateMutability":"nonpayable"},{"type":"function","name":"unwrap","inputs":[{"name":"amount","type":"uint256","internalType":"uint256"}],"outputs":[],"stateMutability":"nonpayable"},{"type":"function","name":"updateBridgeTokens","inputs":[{"name":"_bridgedAmicaToken","type":"address","internalType":"address"},{"name":"_nativeAmicaToken","type":"address","internalType":"address"}],"outputs":[],"stateMutability":"nonpayable"},{"type":"function","name":"wrap","inputs":[{"name":"amount","type":"uint256","internalType":"uint256"}],"outputs":[],"stateMutability":"nonpayable"},{"type":"event","name":"BridgeMetricsUpdated","inputs":[{"name":"totalBridgedIn","type":"uint256","indexed":false,"internalType":"uint256"},{"name":"totalBridgedOut","type":"uint256","indexed":false,"internalType":"uint256"},{"name":"netBridged","type":"uint256","indexed":false,"internalType":"uint256"}],"anonymous":false},{"type":"event","name":"BridgeTokensUpdated","inputs":[{"name":"oldBridgedToken","type":"address","indexed":true,"internalType":"address"},{"name":"newBridgedToken","type":"address","indexed":true,"internalType":"address"},{"name":"newNativeToken","type":"address","indexed":true,"internalType":"address"}],"anonymous":false},{"type":"event","name":"EmergencyWithdraw","inputs":[{"name":"token","type":"address","indexed":true,"internalType":"address"},{"name":"to","type":"address","indexed":true,"internalType":"address"},{"name":"amount","type":"uint256","indexed":false,"internalType":"uint256"}],"anonymous":false},{"type":"event","name":"Initialized","inputs":[{"name":"version","type":"uint64","indexed":false,"internalType":"uint64"}],"anonymous":false},{"type":"event","name":"OwnershipTransferred","inputs":[{"name":"previousOwner","type":"address","indexed":true,"internalType":"address"},{"name":"newOwner","type":"address","indexed":true,"internalType":"address"}],"anonymous":false},{"type":"event","name":"Paused","inputs":[{"name":"account","type":"address","indexed":false,"internalType":"address"}],"anonymous":false},{"type":"event","name":"TokensUnwrapped","inputs":[{"name":"user","type":"address","indexed":true,"internalType":"address"},{"name":"amount","type":"uint256","indexed":false,"internalType":"uint256"}],"anonymous":false},{"type":"event","name":"TokensWrapped","inputs":[{"name":"user","type":"address","indexed":true,"internalType":"address"},{"name":"amount","type":"uint256","indexed":false,"internalType":"uint256"}],"anonymous":false},{"type":"event","name":"Unpaused","inputs":[{"name":"account","type":"address","indexed":false,"internalType":"address"}],"anonymous":false},{"type":"error","name":"AmountExceedsExcess","inputs":[]},{"type":"error","name":"EnforcedPause","inputs":[]},{"type":"error","name":"ExpectedPause","inputs":[]},{"type":"error","name":"InsufficientBridgedTokens","inputs":[]},{"type":"error","name":"InvalidAmount","inputs":[]},{"type":"error","name":"InvalidBridgedToken","inputs":[]},{"type":"error","name":"InvalidInitialization","inputs":[]},{"type":"error","name":"InvalidNativeToken","inputs":[]},{"type":"error","name":"InvalidOwner","inputs":[]},{"type":"error","name":"InvalidRecipient","inputs":[]},{"type":"error","name":"NoExcessTokens","inputs":[]},{"type":"error","name":"NotInitializing","inputs":[]},{"type":"error","name":"OwnableInvalidOwner","inputs":[{"name":"owner","type":"address","internalType":"address"}]},{"type":"error","name":"OwnableUnauthorizedAccount","inputs":[{"name":"account","type":"address","internalType":"address"}]},{"type":"error","name":"ReentrancyGuardReentrantCall","inputs":[]},{"type":"error","name":"TokensMustBeDifferent","inputs":[]},{"type":"error","name":"TransferFailed","inputs":[]}],"bytecode":{"object":"0x6080604052348015600e575f80fd5b5060156019565b60c9565b7ff0c57e16840df040f15088dc2f81fe391c3923bec73e23a9662efc9c229c6a00805468010000000000000000900460ff161560685760405163f92ee8a960e01b815260040160405180910390fd5b80546001600160401b039081161460c65780546001600160401b0319166001600160401b0390811782556040519081527fc7f505b2f371ae2175ee4913f4499e1f2633a7b5936321eed1cdaeb6115181d29060200160405180910390a15b50565b6110ba806100d65f395ff3fe608060405234801561000f575f80fd5b50600436106100fb575f3560e01c8063cd2e986611610093578063ea598cb011610063578063ea598cb0146101f8578063ec9a29f51461020b578063f2fde38b1461021e578063fc79466114610231575f80fd5b8063cd2e9866146101c1578063de0e9a3e146101ca578063de399f76146101dd578063e63ea408146101e5575f80fd5b80638456cb59116100ce5780638456cb591461014f5780638da5cb5b14610157578063a6e676781461019b578063c0c53b8b146101ae575f80fd5b80632bb42183146100ff5780633f4ba83a1461011b5780635c975abb14610125578063715018a614610147575b5f80fd5b61010860025481565b6040519081526020015b60405180910390f35b610123610243565b005b5f805160206110658339815191525460ff166040519015158152602001610112565b610123610255565b610123610266565b7f9016d09d72d40fdae2fd8ceac6b6234c7706214fd39c1cd1e609a0528c199300546001600160a01b03165b6040516001600160a01b039091168152602001610112565b600154610183906001600160a01b031681565b6101236101bc366004610f12565b610276565b61010860035481565b6101236101d8366004610f52565b610457565b6101086106c5565b6101236101f3366004610f69565b610734565b610123610206366004610f52565b61092b565b610123610219366004610fa3565b610ae7565b61012361022c366004610fd4565b610bd6565b5f54610183906001600160a01b031681565b61024b610c15565b610253610c70565b565b61025d610c15565b6102535f610ccf565b61026e610c15565b610253610d3f565b5f61027f610d87565b805490915060ff600160401b820416159067ffffffffffffffff165f811580156102a65750825b90505f8267ffffffffffffffff1660011480156102c25750303b155b9050811580156102d0575080155b156102ee5760405163f92ee8a960e01b815260040160405180910390fd5b845467ffffffffffffffff19166001178555831561031857845460ff60401b1916600160401b1785555b6001600160a01b03881661033f5760405163628b7d7f60e11b815260040160405180910390fd5b6001600160a01b038716610366576040516373ca8a1760e01b815260040160405180910390fd5b866001600160a01b0316886001600160a01b0316036103985760405163fbfc7a9160e01b815260040160405180910390fd5b6001600160a01b0386166103bf576040516349e27cff60e01b815260040160405180910390fd5b6103c886610db1565b6103d0610dc2565b6103d8610dd2565b5f80546001600160a01b03808b166001600160a01b03199283161790925560018054928a1692909116919091179055831561044d57845460ff60401b19168555604051600181527fc7f505b2f371ae2175ee4913f4499e1f2633a7b5936321eed1cdaeb6115181d29060200160405180910390a15b5050505050505050565b61045f610dda565b610467610e24565b805f036104875760405163162908e360e11b815260040160405180910390fd5b5f546040516370a0823160e01b815230600482015282916001600160a01b0316906370a0823190602401602060405180830381865afa1580156104cc573d5f803e3d5ffd5b505050506040513d601f19601f820116820180604052508101906104f09190610ff4565b101561050f57604051634f66986f60e11b815260040160405180910390fd5b60015460405163079cc67960e41b8152336004820152602481018390526001600160a01b03909116906379cc6790906044015f604051808303815f87803b158015610558575f80fd5b505af115801561056a573d5f803e3d5ffd5b50505f5460405163a9059cbb60e01b8152336004820152602481018590526001600160a01b03909116925063a9059cbb91506044016020604051808303815f875af11580156105bb573d5f803e3d5ffd5b505050506040513d601f19601f820116820180604052508101906105df919061100b565b6105fc576040516312171d8360e31b815260040160405180910390fd5b8060035f82825461060d919061103e565b90915550506002546003547f94be0515a07bd4828d6e9855efd58993b8d50f4582212691069ca5abf8bf0d1b91906106458183611051565b6040805193845260208401929092529082015260600160405180910390a160405181815233907fe91b82eebe716fe0b6197b2a7348d6c44cd9ea2369d8f41fe6c0dea9d914e297906020015b60405180910390a26106c260017f9b779b17422d0df92223018b32b4d1fa46e071723d6817e2486d003becc55f0055565b50565b5f80546040516370a0823160e01b81523060048201526001600160a01b03909116906370a0823190602401602060405180830381865afa15801561070b573d5f803e3d5ffd5b505050506040513d601f19601f8201168201806040525081019061072f9190610ff4565b905090565b61073c610c15565b6001600160a01b03821661076357604051634e46966960e11b815260040160405180910390fd5b5f546001600160a01b039081169084160361084c575f6003546002546107899190611051565b5f80546040516370a0823160e01b815230600482015292935090916001600160a01b03909116906370a0823190602401602060405180830381865afa1580156107d4573d5f803e3d5ffd5b505050506040513d601f19601f820116820180604052508101906107f89190610ff4565b905081811161081a5760405163aba2faa560e01b815260040160405180910390fd5b5f6108258383611051565b905080841115610848576040516387e1701960e01b815260040160405180910390fd5b5050505b60405163a9059cbb60e01b81526001600160a01b0383811660048301526024820183905284169063a9059cbb906044016020604051808303815f875af1158015610898573d5f803e3d5ffd5b505050506040513d601f19601f820116820180604052508101906108bc919061100b565b6108d9576040516312171d8360e31b815260040160405180910390fd5b816001600160a01b0316836001600160a01b03167ff24ef89f38eadc1bde50701ad6e4d6d11a2dc24f7cf834a486991f38833285048360405161091e91815260200190565b60405180910390a3505050565b610933610dda565b61093b610e24565b805f0361095b5760405163162908e360e11b815260040160405180910390fd5b5f546040516323b872dd60e01b8152336004820152306024820152604481018390526001600160a01b03909116906323b872dd906064016020604051808303815f875af11580156109ae573d5f803e3d5ffd5b505050506040513d601f19601f820116820180604052508101906109d2919061100b565b6109ef576040516312171d8360e31b815260040160405180910390fd5b6001546040516340c10f1960e01b8152336004820152602481018390526001600160a01b03909116906340c10f19906044015f604051808303815f87803b158015610a38575f80fd5b505af1158015610a4a573d5f803e3d5ffd5b505050508060025f828254610a5f919061103e565b90915550506002546003547f94be0515a07bd4828d6e9855efd58993b8d50f4582212691069ca5abf8bf0d1b9190610a978183611051565b6040805193845260208401929092529082015260600160405180910390a160405181815233907f44f2df7a1faea25f02196385a10daa8bf7635c87d36cd5e78f4ac9e69fbd99b490602001610691565b610aef610c15565b610af7610e7a565b6001600160a01b038216610b1e5760405163628b7d7f60e11b815260040160405180910390fd5b6001600160a01b038116610b45576040516373ca8a1760e01b815260040160405180910390fd5b806001600160a01b0316826001600160a01b031603610b775760405163fbfc7a9160e01b815260040160405180910390fd5b5f80546001600160a01b038481166001600160a01b031980841682178555600180548785169216821790556040519290931693909184917fae1dd35fa7dd26822921d81f756962dc61a7b0d23595510cca367a86bfa21bcd91a4505050565b610bde610c15565b6001600160a01b038116610c0c57604051631e4fbdf760e01b81525f60048201526024015b60405180910390fd5b6106c281610ccf565b33610c477f9016d09d72d40fdae2fd8ceac6b6234c7706214fd39c1cd1e609a0528c199300546001600160a01b031690565b6001600160a01b0316146102535760405163118cdaa760e01b8152336004820152602401610c03565b610c78610e7a565b5f80516020611065833981519152805460ff191681557f5db9ee0a495bf2e6ff9c91a7834c1ba4fdd244a5e8aa4e537bd38aeae4b073aa335b6040516001600160a01b03909116815260200160405180910390a150565b7f9016d09d72d40fdae2fd8ceac6b6234c7706214fd39c1cd1e609a0528c19930080546001600160a01b031981166001600160a01b03848116918217845560405192169182907f8be0079c531659141344cd1fd0a4f28419497f9722a3daafe3b4186f6b6457e0905f90a3505050565b610d47610e24565b5f80516020611065833981519152805460ff191660011781557f62e78cea01bee320cd4e420270b5ea74000d11b0c9f74754ebdbfc544b05a25833610cb1565b5f807ff0c57e16840df040f15088dc2f81fe391c3923bec73e23a9662efc9c229c6a005b92915050565b610db9610ea9565b6106c281610ece565b610dca610ea9565b610253610ed6565b610253610ea9565b7f9b779b17422d0df92223018b32b4d1fa46e071723d6817e2486d003becc55f00805460011901610e1e57604051633ee5aeb560e01b815260040160405180910390fd5b60029055565b5f805160206110658339815191525460ff16156102535760405163d93c066560e01b815260040160405180910390fd5b60017f9b779b17422d0df92223018b32b4d1fa46e071723d6817e2486d003becc55f0055565b5f805160206110658339815191525460ff1661025357604051638dfc202b60e01b815260040160405180910390fd5b610eb1610ede565b61025357604051631afcd79f60e31b815260040160405180910390fd5b610bde610ea9565b610e54610ea9565b5f610ee7610d87565b54600160401b900460ff16919050565b80356001600160a01b0381168114610f0d575f80fd5b919050565b5f805f60608486031215610f24575f80fd5b610f2d84610ef7565b9250610f3b60208501610ef7565b9150610f4960408501610ef7565b90509250925092565b5f60208284031215610f62575f80fd5b5035919050565b5f805f60608486031215610f7b575f80fd5b610f8484610ef7565b9250610f9260208501610ef7565b929592945050506040919091013590565b5f8060408385031215610fb4575f80fd5b610fbd83610ef7565b9150610fcb60208401610ef7565b90509250929050565b5f60208284031215610fe4575f80fd5b610fed82610ef7565b9392505050565b5f60208284031215611004575f80fd5b5051919050565b5f6020828403121561101b575f80fd5b81518015158114610fed575f80fd5b634e487b7160e01b5f52601160045260245ffd5b80820180821115610dab57610dab61102a565b81810381811115610dab57610dab61102a56fecd5ed15c6e187e77e9aee88184c21f4f2182ab5827cb3b7e07fbedcd63f03300a2646970667358221220697a0de0f77dba90c498505645da4778d4fba2ed159740146dd4c4ef53b1f70964736f6c634300081a0033","linkReferences":{}},"methodIdentifiers":{"bridgedAmicaToken()":"fc794661","bridgedBalance()":"de399f76","emergencyWithdraw(address,address,uint256)":"e63ea408","initialize(address,address,address)":"c0c53b8b","nativeAmicaToken()":"a6e67678","owner()":"8da5cb5b","pause()":"8456cb59","paused()":"5c975abb","renounceOwnership()":"715018a6","totalBridgedIn()":"2bb42183","totalBridgedOut()":"cd2e9866","transferOwnership(address)":"f2fde38b","unpause()":"3f4ba83a","unwrap(uint256)":"de0e9a3e","updateBridgeTokens(address,address)":"ec9a29f5","wrap(uint256)":"ea598cb0"},"storageLayout":{"storage":[{"astId":85098,"contract":"src/AmicaBridgeWrapper.sol:AmicaBridgeWrapper","label":"bridgedAmicaToken","offset":0,"slot":"0","type":"t_contract(IERC20)45534"},{"astId":85102,"contract":"src/AmicaBridgeWrapper.sol:AmicaBridgeWrapper","label":"nativeAmicaToken","offset":0,"slot":"1","type":"t_contract(IAmicaToken)85065"},{"astId":85105,"contract":"src/AmicaBridgeWrapper.sol:AmicaBridgeWrapper","label":"totalBridgedIn","offset":0,"slot":"2","type":"t_uint256"},{"astId":85108,"contract":"src/AmicaBridgeWrapper.sol:AmicaBridgeWrapper","label":"totalBridgedOut","offset":0,"slot":"3","type":"t_uint256"},{"astId":85113,"contract":"src/AmicaBridgeWrapper.sol:AmicaBridgeWrapper","label":"__gap","offset":0,"slot":"4","type":"t_array(t_uint256)50_storage"}],"types":{"t_array(t_uint256)50_storage":{"encoding":"inplace","label":"uint256[50]","numberOfBytes":"1600","base":"t_uint256"},"t_contract(IAmicaToken)85065":{"encoding":"inplace","label":"contract IAmicaToken","numberOfBytes":"20"},"t_contract(IERC20)45534":{"encoding":"inplace","label":"contract IERC20","numberOfBytes":"20"},"t_uint256":{"encoding":"inplace","label":"uint256","numberOfBytes":"32"}}},"id":208}