{"abi":[{"type":"constructor","inputs":[],"stateMutability":"nonpayable"},{"type":"function","name":"agentDeposits","inputs":[{"name":"","type":"uint256","internalType":"uint256"},{"name":"","type":"address","internalType":"address"}],"outputs":[{"name":"","type":"uint256","internalType":"uint256"}],"stateMutability":"view"},{"type":"function","name":"amicaToken","inputs":[],"outputs":[{"name":"","type":"address","internalType":"contract IERC20"}],"stateMutability":"view"},{"type":"function","name":"approve","inputs":[{"name":"to","type":"address","internalType":"address"},{"name":"tokenId","type":"uint256","internalType":"uint256"}],"outputs":[],"stateMutability":"nonpayable"},{"type":"function","name":"balanceOf","inputs":[{"name":"owner","type":"address","internalType":"address"}],"outputs":[{"name":"","type":"uint256","internalType":"uint256"}],"stateMutability":"view"},{"type":"function","name":"baseTokenURI","inputs":[],"outputs":[{"name":"","type":"string","internalType":"string"}],"stateMutability":"view"},{"type":"function","name":"bondingBalances","inputs":[{"name":"","type":"uint256","internalType":"uint256"},{"name":"","type":"address","internalType":"address"}],"outputs":[{"name":"","type":"uint256","internalType":"uint256"}],"stateMutability":"view"},{"type":"function","name":"bondingCurve","inputs":[],"outputs":[{"name":"","type":"address","internalType":"contract IBondingCurve"}],"stateMutability":"view"},{"type":"function","name":"claimRewards","inputs":[{"name":"tokenId","type":"uint256","internalType":"uint256"}],"outputs":[],"stateMutability":"nonpayable"},{"type":"function","name":"collectFees","inputs":[{"name":"tokenId","type":"uint256","internalType":"uint256"},{"name":"to","type":"address","internalType":"address"}],"outputs":[{"name":"amount0","type":"uint256","internalType":"uint256"},{"name":"amount1","type":"uint256","internalType":"uint256"}],"stateMutability":"nonpayable"},{"type":"function","name":"configurePairingToken","inputs":[{"name":"token","type":"address","internalType":"address"},{"name":"mintCost","type":"uint256","internalType":"uint256"},{"name":"pricingMultiplier","type":"uint256","internalType":"uint256"},{"name":"enabled","type":"bool","internalType":"bool"}],"outputs":[],"stateMutability":"nonpayable"},{"type":"function","name":"createPersona","inputs":[{"name":"pairingToken","type":"address","internalType":"address"},{"name":"name","type":"string","internalType":"string"},{"name":"symbol","type":"string","internalType":"string"},{"name":"domain","type":"bytes32","internalType":"bytes32"},{"name":"initialBuyAmount","type":"uint256","internalType":"uint256"},{"name":"agentToken","type":"address","internalType":"address"},{"name":"agentTokenThreshold","type":"uint256","internalType":"uint256"}],"outputs":[{"name":"","type":"uint256","internalType":"uint256"}],"stateMutability":"nonpayable"},{"type":"function","name":"depositAgentTokens","inputs":[{"name":"tokenId","type":"uint256","internalType":"uint256"},{"name":"amount","type":"uint256","internalType":"uint256"}],"outputs":[],"stateMutability":"nonpayable"},{"type":"function","name":"domains","inputs":[{"name":"","type":"bytes32","internalType":"bytes32"}],"outputs":[{"name":"","type":"uint256","internalType":"uint256"}],"stateMutability":"view"},{"type":"function","name":"dynamicFeeHook","inputs":[],"outputs":[{"name":"","type":"address","internalType":"address"}],"stateMutability":"view"},{"type":"function","name":"getApproved","inputs":[{"name":"tokenId","type":"uint256","internalType":"uint256"}],"outputs":[{"name":"","type":"address","internalType":"address"}],"stateMutability":"view"},{"type":"function","name":"getClaimableRewards","inputs":[{"name":"tokenId","type":"uint256","internalType":"uint256"},{"name":"user","type":"address","internalType":"address"}],"outputs":[{"name":"purchasedAmount","type":"uint256","internalType":"uint256"},{"name":"bonusAmount","type":"uint256","internalType":"uint256"},{"name":"agentRewardAmount","type":"uint256","internalType":"uint256"},{"name":"totalClaimable","type":"uint256","internalType":"uint256"},{"name":"claimed","type":"bool","internalType":"bool"},{"name":"claimable","type":"bool","internalType":"bool"}],"stateMutability":"view"},{"type":"function","name":"hasClaimedTokens","inputs":[{"name":"","type":"uint256","internalType":"uint256"},{"name":"","type":"address","internalType":"address"}],"outputs":[{"name":"","type":"bool","internalType":"bool"}],"stateMutability":"view"},{"type":"function","name":"initialize","inputs":[{"name":"amicaToken_","type":"address","internalType":"address"},{"name":"poolManager_","type":"address","internalType":"address"},{"name":"positionManager_","type":"address","internalType":"address"},{"name":"permit2_","type":"address","internalType":"address"},{"name":"dynamicFeeHook_","type":"address","internalType":"address"},{"name":"personaTokenImplementation_","type":"address","internalType":"address"},{"name":"bondingCurve_","type":"address","internalType":"address"}],"outputs":[],"stateMutability":"nonpayable"},{"type":"function","name":"isApprovedForAll","inputs":[{"name":"owner","type":"address","internalType":"address"},{"name":"operator","type":"address","internalType":"address"}],"outputs":[{"name":"","type":"bool","internalType":"bool"}],"stateMutability":"view"},{"type":"function","name":"isValidSubdomain","inputs":[{"name":"subdomain","type":"bytes32","internalType":"bytes32"}],"outputs":[{"name":"","type":"bool","internalType":"bool"}],"stateMutability":"pure"},{"type":"function","name":"metadata","inputs":[{"name":"","type":"uint256","internalType":"uint256"},{"name":"","type":"bytes32","internalType":"bytes32"}],"outputs":[{"name":"","type":"string","internalType":"string"}],"stateMutability":"view"},{"type":"function","name":"name","inputs":[],"outputs":[{"name":"","type":"string","internalType":"string"}],"stateMutability":"view"},{"type":"function","name":"owner","inputs":[],"outputs":[{"name":"","type":"address","internalType":"address"}],"stateMutability":"view"},{"type":"function","name":"ownerOf","inputs":[{"name":"tokenId","type":"uint256","internalType":"uint256"}],"outputs":[{"name":"","type":"address","internalType":"address"}],"stateMutability":"view"},{"type":"function","name":"pairingConfigs","inputs":[{"name":"","type":"address","internalType":"address"}],"outputs":[{"name":"enabled","type":"bool","internalType":"bool"},{"name":"mintCost","type":"uint256","internalType":"uint256"},{"name":"pricingMultiplier","type":"uint256","internalType":"uint256"}],"stateMutability":"view"},{"type":"function","name":"pause","inputs":[],"outputs":[],"stateMutability":"nonpayable"},{"type":"function","name":"paused","inputs":[],"outputs":[{"name":"","type":"bool","internalType":"bool"}],"stateMutability":"view"},{"type":"function","name":"personaTokenImplementation","inputs":[],"outputs":[{"name":"","type":"address","internalType":"address"}],"stateMutability":"view"},{"type":"function","name":"personas","inputs":[{"name":"","type":"uint256","internalType":"uint256"}],"outputs":[{"name":"token","type":"address","internalType":"address"},{"name":"pairToken","type":"address","internalType":"address"},{"name":"agentToken","type":"address","internalType":"address"},{"name":"graduationTimestamp","type":"uint256","internalType":"uint256"},{"name":"agentTokenThreshold","type":"uint256","internalType":"uint256"},{"name":"poolId","type":"bytes32","internalType":"PoolId"}],"stateMutability":"view"},{"type":"function","name":"poolManager","inputs":[],"outputs":[{"name":"","type":"address","internalType":"contract IPoolManager"}],"stateMutability":"view"},{"type":"function","name":"positionManager","inputs":[],"outputs":[{"name":"","type":"address","internalType":"contract IPositionManager"}],"stateMutability":"view"},{"type":"function","name":"preGraduationStates","inputs":[{"name":"","type":"uint256","internalType":"uint256"}],"outputs":[{"name":"totalPairingTokensCollected","type":"uint256","internalType":"uint256"},{"name":"tokensPurchased","type":"uint256","internalType":"uint256"},{"name":"totalAgentDeposited","type":"uint256","internalType":"uint256"}],"stateMutability":"view"},{"type":"function","name":"renounceOwnership","inputs":[],"outputs":[],"stateMutability":"nonpayable"},{"type":"function","name":"safeTransferFrom","inputs":[{"name":"from","type":"address","internalType":"address"},{"name":"to","type":"address","internalType":"address"},{"name":"tokenId","type":"uint256","internalType":"uint256"}],"outputs":[],"stateMutability":"nonpayable"},{"type":"function","name":"safeTransferFrom","inputs":[{"name":"from","type":"address","internalType":"address"},{"name":"to","type":"address","internalType":"address"},{"name":"tokenId","type":"uint256","internalType":"uint256"},{"name":"data","type":"bytes","internalType":"bytes"}],"outputs":[],"stateMutability":"nonpayable"},{"type":"function","name":"setApprovalForAll","inputs":[{"name":"operator","type":"address","internalType":"address"},{"name":"approved","type":"bool","internalType":"bool"}],"outputs":[],"stateMutability":"nonpayable"},{"type":"function","name":"setBaseURI","inputs":[{"name":"newBaseURI","type":"string","internalType":"string"}],"outputs":[],"stateMutability":"nonpayable"},{"type":"function","name":"supportsInterface","inputs":[{"name":"interfaceId","type":"bytes4","internalType":"bytes4"}],"outputs":[{"name":"","type":"bool","internalType":"bool"}],"stateMutability":"view"},{"type":"function","name":"swapExactTokensForPairingTokens","inputs":[{"name":"tokenId","type":"uint256","internalType":"uint256"},{"name":"amountIn","type":"uint256","internalType":"uint256"},{"name":"amountOutMin","type":"uint256","internalType":"uint256"},{"name":"to","type":"address","internalType":"address"},{"name":"deadline","type":"uint256","internalType":"uint256"}],"outputs":[{"name":"amountOut","type":"uint256","internalType":"uint256"}],"stateMutability":"nonpayable"},{"type":"function","name":"swapExactTokensForTokens","inputs":[{"name":"tokenId","type":"uint256","internalType":"uint256"},{"name":"amountIn","type":"uint256","internalType":"uint256"},{"name":"amountOutMin","type":"uint256","internalType":"uint256"},{"name":"to","type":"address","internalType":"address"},{"name":"deadline","type":"uint256","internalType":"uint256"}],"outputs":[{"name":"amountOut","type":"uint256","internalType":"uint256"}],"stateMutability":"nonpayable"},{"type":"function","name":"symbol","inputs":[],"outputs":[{"name":"","type":"string","internalType":"string"}],"stateMutability":"view"},{"type":"function","name":"tokenByIndex","inputs":[{"name":"index","type":"uint256","internalType":"uint256"}],"outputs":[{"name":"","type":"uint256","internalType":"uint256"}],"stateMutability":"view"},{"type":"function","name":"tokenOfOwnerByIndex","inputs":[{"name":"owner","type":"address","internalType":"address"},{"name":"index","type":"uint256","internalType":"uint256"}],"outputs":[{"name":"","type":"uint256","internalType":"uint256"}],"stateMutability":"view"},{"type":"function","name":"tokenURI","inputs":[{"name":"tokenId","type":"uint256","internalType":"uint256"}],"outputs":[{"name":"","type":"string","internalType":"string"}],"stateMutability":"view"},{"type":"function","name":"totalSupply","inputs":[],"outputs":[{"name":"","type":"uint256","internalType":"uint256"}],"stateMutability":"view"},{"type":"function","name":"transferFrom","inputs":[{"name":"from","type":"address","internalType":"address"},{"name":"to","type":"address","internalType":"address"},{"name":"tokenId","type":"uint256","internalType":"uint256"}],"outputs":[],"stateMutability":"nonpayable"},{"type":"function","name":"transferOwnership","inputs":[{"name":"newOwner","type":"address","internalType":"address"}],"outputs":[],"stateMutability":"nonpayable"},{"type":"function","name":"unpause","inputs":[],"outputs":[],"stateMutability":"nonpayable"},{"type":"function","name":"updateMetadata","inputs":[{"name":"tokenId","type":"uint256","internalType":"uint256"},{"name":"keys","type":"bytes32[]","internalType":"bytes32[]"},{"name":"values","type":"string[]","internalType":"string[]"}],"outputs":[],"stateMutability":"nonpayable"},{"type":"function","name":"withdrawAgentTokens","inputs":[{"name":"tokenId","type":"uint256","internalType":"uint256"},{"name":"amount","type":"uint256","internalType":"uint256"}],"outputs":[],"stateMutability":"nonpayable"},{"type":"event","name":"AgentRewardsDistributed","inputs":[{"name":"tokenId","type":"uint256","indexed":true,"internalType":"uint256"},{"name":"recipient","type":"address","indexed":true,"internalType":"address"},{"name":"personaTokens","type":"uint256","indexed":false,"internalType":"uint256"}],"anonymous":false},{"type":"event","name":"AgentTokenAssociated","inputs":[{"name":"tokenId","type":"uint256","indexed":true,"internalType":"uint256"},{"name":"agentToken","type":"address","indexed":true,"internalType":"address"}],"anonymous":false},{"type":"event","name":"AgentTokensDeposited","inputs":[{"name":"tokenId","type":"uint256","indexed":true,"internalType":"uint256"},{"name":"depositor","type":"address","indexed":true,"internalType":"address"},{"name":"amount","type":"uint256","indexed":false,"internalType":"uint256"},{"name":"newTotal","type":"uint256","indexed":false,"internalType":"uint256"}],"anonymous":false},{"type":"event","name":"AgentTokensWithdrawn","inputs":[{"name":"tokenId","type":"uint256","indexed":true,"internalType":"uint256"},{"name":"depositor","type":"address","indexed":true,"internalType":"address"},{"name":"amount","type":"uint256","indexed":false,"internalType":"uint256"},{"name":"newTotal","type":"uint256","indexed":false,"internalType":"uint256"}],"anonymous":false},{"type":"event","name":"Approval","inputs":[{"name":"owner","type":"address","indexed":true,"internalType":"address"},{"name":"approved","type":"address","indexed":true,"internalType":"address"},{"name":"tokenId","type":"uint256","indexed":true,"internalType":"uint256"}],"anonymous":false},{"type":"event","name":"ApprovalForAll","inputs":[{"name":"owner","type":"address","indexed":true,"internalType":"address"},{"name":"operator","type":"address","indexed":true,"internalType":"address"},{"name":"approved","type":"bool","indexed":false,"internalType":"bool"}],"anonymous":false},{"type":"event","name":"FeesCollected","inputs":[{"name":"tokenId","type":"uint256","indexed":true,"internalType":"uint256"},{"name":"poolId","type":"bytes32","indexed":false,"internalType":"PoolId"},{"name":"amount0","type":"uint256","indexed":false,"internalType":"uint256"},{"name":"amount1","type":"uint256","indexed":false,"internalType":"uint256"}],"anonymous":false},{"type":"event","name":"Graduated","inputs":[{"name":"tokenId","type":"uint256","indexed":true,"internalType":"uint256"},{"name":"poolId","type":"bytes32","indexed":true,"internalType":"PoolId"},{"name":"totalDeposited","type":"uint256","indexed":false,"internalType":"uint256"},{"name":"tokensSold","type":"uint256","indexed":false,"internalType":"uint256"}],"anonymous":false},{"type":"event","name":"Initialized","inputs":[{"name":"version","type":"uint64","indexed":false,"internalType":"uint64"}],"anonymous":false},{"type":"event","name":"MetadataUpdated","inputs":[{"name":"tokenId","type":"uint256","indexed":true,"internalType":"uint256"},{"name":"key","type":"bytes32","indexed":true,"internalType":"bytes32"}],"anonymous":false},{"type":"event","name":"OwnershipTransferred","inputs":[{"name":"previousOwner","type":"address","indexed":true,"internalType":"address"},{"name":"newOwner","type":"address","indexed":true,"internalType":"address"}],"anonymous":false},{"type":"event","name":"PairingConfigUpdated","inputs":[{"name":"token","type":"address","indexed":true,"internalType":"address"}],"anonymous":false},{"type":"event","name":"Paused","inputs":[{"name":"account","type":"address","indexed":false,"internalType":"address"}],"anonymous":false},{"type":"event","name":"PersonaCreated","inputs":[{"name":"tokenId","type":"uint256","indexed":true,"internalType":"uint256"},{"name":"domain","type":"bytes32","indexed":true,"internalType":"bytes32"},{"name":"token","type":"address","indexed":true,"internalType":"address"}],"anonymous":false},{"type":"event","name":"TokensClaimed","inputs":[{"name":"tokenId","type":"uint256","indexed":true,"internalType":"uint256"},{"name":"user","type":"address","indexed":true,"internalType":"address"},{"name":"purchasedAmount","type":"uint256","indexed":false,"internalType":"uint256"},{"name":"bonusAmount","type":"uint256","indexed":false,"internalType":"uint256"},{"name":"totalAmount","type":"uint256","indexed":false,"internalType":"uint256"}],"anonymous":false},{"type":"event","name":"TokensDistributed","inputs":[{"name":"tokenId","type":"uint256","indexed":true,"internalType":"uint256"},{"name":"toAmica","type":"uint256","indexed":false,"internalType":"uint256"},{"name":"toLiquidity","type":"uint256","indexed":false,"internalType":"uint256"},{"name":"toAgentRewards","type":"uint256","indexed":false,"internalType":"uint256"}],"anonymous":false},{"type":"event","name":"TokensPurchased","inputs":[{"name":"tokenId","type":"uint256","indexed":true,"internalType":"uint256"},{"name":"buyer","type":"address","indexed":true,"internalType":"address"},{"name":"amountSpent","type":"uint256","indexed":false,"internalType":"uint256"},{"name":"tokensReceived","type":"uint256","indexed":false,"internalType":"uint256"}],"anonymous":false},{"type":"event","name":"TokensSold","inputs":[{"name":"tokenId","type":"uint256","indexed":true,"internalType":"uint256"},{"name":"seller","type":"address","indexed":true,"internalType":"address"},{"name":"tokensSold","type":"uint256","indexed":false,"internalType":"uint256"},{"name":"amountReceived","type":"uint256","indexed":false,"internalType":"uint256"}],"anonymous":false},{"type":"event","name":"Transfer","inputs":[{"name":"from","type":"address","indexed":true,"internalType":"address"},{"name":"to","type":"address","indexed":true,"internalType":"address"},{"name":"tokenId","type":"uint256","indexed":true,"internalType":"uint256"}],"anonymous":false},{"type":"event","name":"Unpaused","inputs":[{"name":"account","type":"address","indexed":false,"internalType":"address"}],"anonymous":false},{"type":"event","name":"V4PoolCreated","inputs":[{"name":"tokenId","type":"uint256","indexed":true,"internalType":"uint256"},{"name":"poolId","type":"bytes32","indexed":true,"internalType":"PoolId"},{"name":"liquidity","type":"uint256","indexed":false,"internalType":"uint256"}],"anonymous":false},{"type":"error","name":"ERC721EnumerableForbiddenBatchMint","inputs":[]},{"type":"error","name":"ERC721IncorrectOwner","inputs":[{"name":"sender","type":"address","internalType":"address"},{"name":"tokenId","type":"uint256","internalType":"uint256"},{"name":"owner","type":"address","internalType":"address"}]},{"type":"error","name":"ERC721InsufficientApproval","inputs":[{"name":"operator","type":"address","internalType":"address"},{"name":"tokenId","type":"uint256","internalType":"uint256"}]},{"type":"error","name":"ERC721InvalidApprover","inputs":[{"name":"approver","type":"address","internalType":"address"}]},{"type":"error","name":"ERC721InvalidOperator","inputs":[{"name":"operator","type":"address","internalType":"address"}]},{"type":"error","name":"ERC721InvalidOwner","inputs":[{"name":"owner","type":"address","internalType":"address"}]},{"type":"error","name":"ERC721InvalidReceiver","inputs":[{"name":"receiver","type":"address","internalType":"address"}]},{"type":"error","name":"ERC721InvalidSender","inputs":[{"name":"sender","type":"address","internalType":"address"}]},{"type":"error","name":"ERC721NonexistentToken","inputs":[{"name":"tokenId","type":"uint256","internalType":"uint256"}]},{"type":"error","name":"ERC721OutOfBoundsIndex","inputs":[{"name":"owner","type":"address","internalType":"address"},{"name":"index","type":"uint256","internalType":"uint256"}]},{"type":"error","name":"EnforcedPause","inputs":[]},{"type":"error","name":"ExpectedPause","inputs":[]},{"type":"error","name":"Failed","inputs":[{"name":"code","type":"uint8","internalType":"uint8"}]},{"type":"error","name":"FailedDeployment","inputs":[]},{"type":"error","name":"Insufficient","inputs":[{"name":"code","type":"uint8","internalType":"uint8"}]},{"type":"error","name":"InsufficientBalance","inputs":[{"name":"balance","type":"uint256","internalType":"uint256"},{"name":"needed","type":"uint256","internalType":"uint256"}]},{"type":"error","name":"Invalid","inputs":[{"name":"code","type":"uint8","internalType":"uint8"}]},{"type":"error","name":"InvalidInitialization","inputs":[]},{"type":"error","name":"NotAllowed","inputs":[{"name":"code","type":"uint8","internalType":"uint8"}]},{"type":"error","name":"NotInitializing","inputs":[]},{"type":"error","name":"OwnableInvalidOwner","inputs":[{"name":"owner","type":"address","internalType":"address"}]},{"type":"error","name":"OwnableUnauthorizedAccount","inputs":[{"name":"account","type":"address","internalType":"address"}]},{"type":"error","name":"ReentrancyGuardReentrantCall","inputs":[]}],"bytecode":{"object":"0x6080604052348015600e575f80fd5b5060156019565b60c9565b7ff0c57e16840df040f15088dc2f81fe391c3923bec73e23a9662efc9c229c6a00805468010000000000000000900460ff161560685760405163f92ee8a960e01b815260040160405180910390fd5b80546001600160401b039081161460c65780546001600160401b0319166001600160401b0390811782556040519081527fc7f505b2f371ae2175ee4913f4499e1f2633a7b5936321eed1cdaeb6115181d29060200160405180910390a15b50565b615942806100d65f395ff3fe608060405234801561000f575f80fd5b50600436106102cb575f3560e01c806370a082311161017b578063a575f120116100e4578063c722f1771161009e578063dc4c90d311610079578063dc4c90d3146107ea578063e985e9c5146107fd578063eff1d50e14610810578063f2fde38b14610823575f80fd5b8063c722f177146107b0578063c87b56dd146107cf578063d547cfb7146107e2575f80fd5b8063a575f120146106f3578063a936da6814610706578063ab60df9014610719578063b88d4fde1461075d578063be78533f14610770578063c24f88e31461079d575f80fd5b80638b40d243116101355780638b40d243146106395780638da5cb5b146106825780638da9c676146106b257806395d89b41146106c5578063a04e401a146106cd578063a22cb465146106e0575f80fd5b806370a08231146105dd578063715018a6146105f0578063717e4742146105f857806377974f111461060b578063791b98bc1461061e5780638456cb5914610631575f80fd5b80632f745c59116102375780634b3eacf3116101f157806355f804b3116101cc57806355f804b31461058d5780635c975abb146105a057806361817c64146105b75780636352211e146105ca575f80fd5b80634b3eacf3146105285780634f6ccce71461055257806351f3b4bd14610565575f80fd5b80632f745c591461044657806335876476146104595780633f4ba83a1461046c57806340291e6a1461047457806342842e0e14610502578063498307ce14610515575f80fd5b806313ee32be1161028857806313ee32be14610372578063157e6464146103aa57806318160ddd146103bd5780632330cb31146103d157806323b872dd146104205780632d8651ac14610433575f80fd5b806301ffc9a7146102cf57806306fdde03146102f7578063081812fc1461030c578063095ea7b3146103375780630962ef791461034c57806311d8c69b1461035f575b5f80fd5b6102e26102dd366004614c94565b610836565b60405190151581526020015b60405180910390f35b6102ff610860565b6040516102ee9190614cdd565b61031f61031a366004614cef565b610901565b6040516001600160a01b0390911681526020016102ee565b61034a610345366004614d1c565b610915565b005b61034a61035a366004614cef565b610924565b61034a61036d366004614d51565b610b83565b61039c610380366004614d96565b600f60209081525f928352604080842090915290825290205481565b6040519081526020016102ee565b60055461031f906001600160a01b031681565b5f805160206158ad8339815191525461039c565b6104036103df366004614dc0565b60106020525f908152604090208054600182015460029092015460ff909116919083565b6040805193151584526020840192909252908201526060016102ee565b61034a61042e366004614dd9565b610caa565b61039c610441366004614ed6565b610d33565b61039c610454366004614d1c565b6112b1565b61034a610467366004614f77565b611314565b61034a61159a565b6104c4610482366004614cef565b60096020525f90815260409020805460018201546002830154600384015460048501546005909501546001600160a01b03948516959385169490921692909186565b604080516001600160a01b039788168152958716602087015293909516928401929092526060830152608082015260a081019190915260c0016102ee565b61034a610510366004614dd9565b6115ac565b61034a6105233660046150a2565b6115cb565b61039c610536366004614d96565b600d60209081525f928352604080842090915290825290205481565b61039c610560366004614cef565b6116dd565b610578610573366004614d96565b61174a565b604080519283526020830191909152016102ee565b61034a61059b366004615164565b611c07565b5f805160206158cd8339815191525460ff166102e2565b6102e26105c5366004614cef565b611c1a565b61031f6105d8366004614cef565b611dfe565b61039c6105eb366004614dc0565b611e08565b61034a611e60565b61039c610606366004615195565b611e71565b60065461031f906001600160a01b031681565b60035461031f906001600160a01b031681565b61034a61221c565b610667610647366004614cef565b600c6020525f908152604090208054600182015460029092015490919083565b604080519384526020840192909252908201526060016102ee565b7f9016d09d72d40fdae2fd8ceac6b6234c7706214fd39c1cd1e609a0528c199300546001600160a01b031661031f565b61034a6106c03660046151d8565b61222c565b6102ff6123ec565b60015461031f906001600160a01b031681565b61034a6106ee3660046151f8565b61242a565b6102ff6107013660046151d8565b612435565b61039c610714366004615195565b6124d7565b61072c610727366004614d96565b61250e565b60408051968752602087019590955293850192909252606084015215156080830152151560a082015260c0016102ee565b61034a61076b36600461522d565b6126e1565b6102e261077e366004614d96565b600e60209081525f928352604080842090915290825290205460ff1681565b61034a6107ab3660046151d8565b6126f9565b61039c6107be366004614cef565b600b6020525f908152604090205481565b6102ff6107dd366004614cef565b61293e565b6102ff6129a3565b60025461031f906001600160a01b031681565b6102e261080b3660046152a3565b6129af565b60075461031f906001600160a01b031681565b61034a610831366004614dc0565b6129fb565b5f6001600160e01b0319821663780e9d6360e01b148061085a575061085a82612a35565b92915050565b5f8051602061588d833981519152805460609190819061087f906152cb565b80601f01602080910402602001604051908101604052809291908181526020018280546108ab906152cb565b80156108f65780601f106108cd576101008083540402835291602001916108f6565b820191905f5260205f20905b8154815290600101906020018083116108d957829003601f168201915b505050505091505090565b5f61090b82612a84565b5061085a82612abb565b610920828233612af4565b5050565b61092c612b01565b610934612b38565b5f805f805f80610944873361250e565b5f8d81526009602052604090208054969c50949a5092985090965094509250906001600160a01b031661099157604051635f3b45f360e01b81525f60048201526024015b60405180910390fd5b80600301545f036109b85760405163c66c0c6d60e01b815260036004820152602401610988565b816109d95760405163c66c0c6d60e01b8152600c6004820152602401610988565b82156109fb57604051635f3b45f360e01b8152600e6004820152602401610988565b835f03610a1e5760405163c66c0c6d60e01b815260096004820152602401610988565b5f888152600e6020908152604080832033808552925291829020805460ff191660011790558254915163a9059cbb60e01b81526001600160a01b03929092169163a9059cbb91610a729188906004016152fd565b6020604051808303815f875af1158015610a8e573d5f803e3d5ffd5b505050506040513d601f19601f82011682018060405250810190610ab29190615316565b610ad15760405163dc7ce3bb60e01b81525f6004820152602401610988565b8615610b255733887f1599fb5c175bfa57874885a3dcee69bc6102dc0c0540ca4b0622d6663c3d85518989610b068183615345565b6040805193845260208401929092529082015260600160405180910390a35b8415610b6357604051858152339089907f43dfc6afc5678410c8a0b7a51de3aa33dd53309728c66238999c6a5a45fe704a9060200160405180910390a35b50505050505050610b8060015f805160206158ed83398151915255565b50565b610b8b612b7b565b6001600160a01b038416610bb457604051635f3b45f360e01b81525f6004820152602401610988565b60408051606081018252821515815260208082018681528284018681526001600160a01b038981165f8181526010909552938690209451855460ff1916901515178555915160018501555160029093019290925560048054935163095ea7b360e01b8152919363095ea7b393610c30939116915f1991016152fd565b6020604051808303815f875af1158015610c4c573d5f803e3d5ffd5b505050506040513d601f19601f82011682018060405250810190610c709190615316565b506040516001600160a01b038516907f3ef415ddef109a4c74a41439b8ff2815fb076ddae4762ad6b0a116ba1f4d64db905f90a250505050565b6001600160a01b038216610cd357604051633250574960e11b81525f6004820152602401610988565b5f610cdf838333612bd6565b9050836001600160a01b0316816001600160a01b031614610d2d576040516364283d7b60e01b81526001600160a01b0380861660048301526024820184905282166044820152606401610988565b50505050565b5f610d3c612b01565b610d44612b38565b6001600160a01b038316158015610d5a57508115155b15610d7b57604051635f3b45f360e01b815260066004820152602401610988565b6001600160a01b0388165f908152601060209081526040918290208251606081018452815460ff16151580825260018301549382019390935260029091015492810192909252610de15760405163c66c0c6d60e01b815260016004820152602401610988565b87511580610df0575060208851115b15610e1157604051635f3b45f360e01b815260036004820152602401610988565b86511580610e205750600a8751115b15610e4057604051635f3b45f360e01b8152600481810152602401610988565b85610e6157604051635f3b45f360e01b8152600a6004820152602401610988565b610e6a86611c1a565b610e8a57604051635f3b45f360e01b8152600d6004820152602401610988565b5f868152600b602052604090205415610eb957604051635f3b45f360e01b8152600b6004820152602401610988565b5f858260200151610eca9190615345565b6040516370a0823160e01b815233600482015290915081906001600160a01b038c16906370a0823190602401602060405180830381865afa158015610f11573d5f803e3d5ffd5b505050506040513d601f19601f82011682018060405250810190610f359190615358565b1015610f5657604051633071a1fd60e21b81525f6004820152602401610988565b6040516323b872dd60e01b8152336004820152306024820152604481018290526001600160a01b038b16906323b872dd906064016020604051808303815f875af1158015610fa6573d5f803e3d5ffd5b505050506040513d601f19601f82011682018060405250810190610fca9190615316565b610fea5760405163dc7ce3bb60e01b815260016004820152602401610988565b5f60085f8154610ff99061536f565b9182905550905061100a3382612cd4565b6006545f90611021906001600160a01b0316612d35565b9050806001600160a01b031663bd3a13f68c604051602001611043919061539e565b6040516020818303038152906040528c604051602001611063919061539e565b6040516020818303038152906040526b033b2e3c9fd0803ce8000000306040518563ffffffff1660e01b815260040161109f94939291906153bf565b5f604051808303815f87803b1580156110b6575f80fd5b505af11580156110c8573d5f803e3d5ffd5b50506004805460405163095ea7b360e01b81526001600160a01b03808716955063095ea7b394506110ff939216915f1991016152fd565b6020604051808303815f875af115801561111b573d5f803e3d5ffd5b505050506040513d601f19601f8201168201806040525081019061113f9190615316565b505f60095f8481526020019081526020015f20905081815f015f6101000a8154816001600160a01b0302191690836001600160a01b031602179055508c816001015f6101000a8154816001600160a01b0302191690836001600160a01b0316021790555087816002015f6101000a8154816001600160a01b0302191690836001600160a01b0316021790555086816004018190555082600b5f8c81526020019081526020015f2081905550816001600160a01b03168a847feca9a2cd783b224eeed4c8c4784255a3e47caaf04a026d21349e579fc3cc255060405160405180910390a46001600160a01b03881615611267576040516001600160a01b0389169084907f998080a81a66962becc86e7ea090fbb3e8115c73382c333481914dd98a2f59d9905f90a35b881561128957611287838a5f336112804261012c615345565b6001612d40565b505b509093505050506112a660015f805160206158ed83398151915255565b979650505050505050565b5f5f8051602061586d8339815191526112c984611e08565b83106112ec57838360405163295f44f760e21b81526004016109889291906152fd565b6001600160a01b0384165f908152602091825260408082208583529092522054905092915050565b5f61131d61313b565b805490915060ff600160401b82041615906001600160401b03165f811580156113435750825b90505f826001600160401b0316600114801561135e5750303b155b90508115801561136c575080155b1561138a5760405163f92ee8a960e01b815260040160405180910390fd5b845467ffffffffffffffff1916600117855583156113b457845460ff60401b1916600160401b1785555b6114026040518060400160405280600d81526020016c416d69636120506572736f6e6160981b81525060405180604001604052806007815260200166504552534f4e4160c81b815250613163565b61140a613175565b6114133361317d565b61141b61318e565b611423613175565b6001600160a01b038c16158061144057506001600160a01b038b16155b8061145257506001600160a01b038a16155b8061146457506001600160a01b038816155b8061147657506001600160a01b038716155b8061148857506001600160a01b038916155b8061149a57506001600160a01b038616155b156114bb57604051635f3b45f360e01b8152600c6004820152602401610988565b600180546001600160a01b03199081166001600160a01b038f81169190911783556002805483168f83161790556003805483168e83161790556004805483168d83161790556005805483168c83161790556006805483168b831617905560078054909216908916179055611546908d90683635c9adc5dea00000906848431755769bb4000090610b83565b831561158c57845460ff60401b19168555604051600181527fc7f505b2f371ae2175ee4913f4499e1f2633a7b5936321eed1cdaeb6115181d29060200160405180910390a15b505050505050505050505050565b6115a2612b7b565b6115aa61319e565b565b6115c683838360405180602001604052805f8152506126e1565b505050565b336115d584611dfe565b6001600160a01b0316146115fe5760405163c66c0c6d60e01b81525f6004820152602401610988565b805182511461162357604051635f3b45f360e01b815260056004820152602401610988565b5f5b8251811015610d2d5781818151811061164057611640615405565b6020026020010151600a5f8681526020019081526020015f205f85848151811061166c5761166c615405565b602002602001015181526020019081526020015f20908161168d919061545d565b508281815181106116a0576116a0615405565b6020026020010151847f9c06c04824dfb4ebf41804d51120c24a2ab63d6230efe7b7bc5a199f837dd3ad60405160405180910390a3600101611625565b5f5f8051602061586d8339815191526117015f805160206158ad8339815191525490565b8310611724575f8360405163295f44f760e21b81526004016109889291906152fd565b80600201838154811061173957611739615405565b905f5260205f200154915050919050565b5f80611754612b01565b3361175e85611dfe565b6001600160a01b0316146117885760405163c66c0c6d60e01b8152600b6004820152602401610988565b5f84815260096020526040902060058101546117ba5760405163c66c0c6d60e01b8152600b6004820152602401610988565b6001600160a01b0384166117e457604051635f3b45f360e01b8152600c6004820152602401610988565b805460018201545f918291611805916001600160a01b0390811691166131fd565b915091505f611814838361322d565b6040516370a0823160e01b81526001600160a01b0389811660048301529192505f918516906370a0823190602401602060405180830381865afa15801561185d573d5f803e3d5ffd5b505050506040513d601f19601f820116820180604052508101906118819190615358565b6040516370a0823160e01b81526001600160a01b038a811660048301529192505f918516906370a0823190602401602060405180830381865afa1580156118ca573d5f803e3d5ffd5b505050506040513d601f19601f820116820180604052508101906118ee9190615358565b60408051600160f81b6020820152601160f81b602182015281516002818303810182526022830181815260828401909452939450925f92916042015b606081526020019060019003908161192a5790505060058901546040805160208101929092525f908201819052606082018190526080820181905260a08083015260c082015290915060e001604051602081830303815290604052815f8151811061199757611997615405565b6020026020010181905250845f015185602001518c6040516020016119dc939291906001600160a01b0393841681529183166020830152909116604082015260600190565b604051602081830303815290604052816001815181106119fe576119fe615405565b60209081029190910101525f611a1542603c615345565b6003546040519192506001600160a01b03169063dd46508f905f90611a409087908790602001615571565b604051602081830303815290604052846040518463ffffffff1660e01b8152600401611a6d929190615595565b5f604051808303818588803b158015611a84575f80fd5b505af1158015611a96573d5f803e3d5ffd5b505050505084886001600160a01b03166370a082318e6040518263ffffffff1660e01b8152600401611ad791906001600160a01b0391909116815260200190565b602060405180830381865afa158015611af2573d5f803e3d5ffd5b505050506040513d601f19601f82011682018060405250810190611b169190615358565b611b2091906155b6565b6040516370a0823160e01b81526001600160a01b038e81166004830152919c5085918916906370a0823190602401602060405180830381865afa158015611b69573d5f803e3d5ffd5b505050506040513d601f19601f82011682018060405250810190611b8d9190615358565b611b9791906155b6565b60058a015460408051918252602082018e90528101829052909a508d907f70653dab468f4f1cf7db4eef874c3846af00f2f8aab126ad7c4addfb5b4d70c39060600160405180910390a2505050505050505050611c0060015f805160206158ed83398151915255565b9250929050565b611c0f612b7b565b5f610920828261545d565b5f80805b6020811015611c6157838160208110611c3957611c39615405565b1a60f81b6001600160f81b03191615611c615781611c568161536f565b925050600101611c1e565b50805f03611c7157505f92915050565b5f83901a60f81b606160f81b6001600160f81b0319821610801590611ca45750603d60f91b6001600160f81b0319821611155b611cb157505f9392505050565b5f84611cbe6001856155b6565b60208110611cce57611cce615405565b1a60f81b9050606160f81b6001600160f81b0319821610801590611d005750603d60f91b6001600160f81b0319821611155b80611d325750600360fc1b6001600160f81b0319821610801590611d325750603960f81b6001600160f81b0319821611155b611d4057505f949350505050565b5f5b83811015611df2575f868260208110611d5d57611d5d615405565b1a60f81b9050606160f81b6001600160f81b0319821610801590611d8f5750603d60f91b6001600160f81b0319821611155b80611dc15750600360fc1b6001600160f81b0319821610801590611dc15750603960f81b6001600160f81b0319821611155b80611dd95750602d60f81b6001600160f81b03198216145b611de957505f9695505050505050565b50600101611d42565b50600195945050505050565b5f61085a82612a84565b5f5f8051602061588d8339815191526001600160a01b038316611e40576040516322718ad960e21b81525f6004820152602401610988565b6001600160a01b039092165f908152600390920160205250604090205490565b611e68612b7b565b6115aa5f6132c9565b5f611e7a612b01565b611e82612b38565b81421115611ea65760405163c66c0c6d60e01b815260056004820152602401610988565b6001600160a01b038316611ed057604051635f3b45f360e01b815260026004820152602401610988565b845f03611ef357604051635f3b45f360e01b815260016004820152602401610988565b5f868152600960205260409020600381015415611f255760405163c66c0c6d60e01b8152600481810152602401610988565b80546001600160a01b0316611f4f57604051635f3b45f360e01b81525f6004820152602401610988565b5f878152600c60209081526040808320600d83528184203385529092529091205487811015611f9357604051633071a1fd60e21b8152600481810152602401610988565b60028301545f90611fae906001600160a01b03161515613339565b60075460018501546020830151604051633cf1b21560e21b8152600481018e9052602481019290925260448201529192506001600160a01b03169063f3c6c85490606401602060405180830381865afa15801561200d573d5f803e3d5ffd5b505050506040513d601f19601f820116820180604052508101906120319190615358565b6001808601546001600160a01b03165f908152601060209081526040918290208251606081018452815460ff16151581529381015491840191909152600201549082018190529196509061208d670de0b6b3a7640000886155c9565b61209791906155e0565b9550888610156120bd57604051633071a1fd60e21b815260016004820152602401610988565b83548611156120cb57835495505b89846001015f8282546120de91906155b6565b90915550508354869085905f906120f69084906155b6565b90915550505f8b8152600d60209081526040808320338452909152812080548c92906121239084906155b6565b9091555050600185015460405163a9059cbb60e01b81526001600160a01b039091169063a9059cbb9061215c908b908a906004016152fd565b6020604051808303815f875af1158015612178573d5f803e3d5ffd5b505050506040513d601f19601f8201168201806040525081019061219c9190615316565b6121bb5760405163dc7ce3bb60e01b81525f6004820152602401610988565b604080518b81526020810188905233918d917fb3b5018d26b7b3764106321edeb54ab6d90aee3598f78eae1da7a2ce084e9aa9910160405180910390a3505050505061221360015f805160206158ed83398151915255565b95945050505050565b612224612b7b565b6115aa6133e7565b612234612b01565b61223c612b38565b5f82815260096020526040902060038101541561226f5760405163c66c0c6d60e01b815260026004820152602401610988565b5f838152600f602090815260408083203384529091529020548211156122aa57604051633071a1fd60e21b8152600481810152602401610988565b5f838152600f60209081526040808320338452909152812080548492906122d29084906155b6565b90915550505f838152600c60205260408120600281018054919285926122f99084906155b6565b9091555050600282015460405163a9059cbb60e01b81526001600160a01b039091169063a9059cbb9061233290339087906004016152fd565b6020604051808303815f875af115801561234e573d5f803e3d5ffd5b505050506040513d601f19601f820116820180604052508101906123729190615316565b6123915760405163dc7ce3bb60e01b81525f6004820152602401610988565b6002810154604080518581526020810192909252339186917fa7e012f82f3c62431a985dc0bcaecebfcb983a90fba2f2dce8b6d4dbeab23acd910160405180910390a3505061092060015f805160206158ed83398151915255565b7f80bb2b638cc20bc4d0a60d66940f3ab4a00c1d7b313497ca82fb0b4ab007930180546060915f8051602061588d8339815191529161087f906152cb565b61092033838361342f565b600a60209081525f928352604080842090915290825290208054612458906152cb565b80601f0160208091040260200160405190810160405280929190818152602001828054612484906152cb565b80156124cf5780601f106124a6576101008083540402835291602001916124cf565b820191905f5260205f20905b8154815290600101906020018083116124b257829003601f168201915b505050505081565b5f6124e0612b01565b6124e8612b38565b6124f686868686865f612d40565b905061221360015f805160206158ed83398151915255565b5f828152600960205260408120600381015482918291829182918291908203612549575f805f805f80965096509650965096509650506126d7565b62015180816003015461255c9190615345565b600282015442919091101592505f9061257f906001600160a01b03161515613339565b5f8b8152600d602090815260408083206001600160a01b038e16808552908352818420548f8552600e845282852091855292529091205490995060ff169450905087158015906125cd575083155b15612644575f8a8152600c602090815260408220600181015491840151909291106125f8575f61260c565b8160010154836020015161260c91906155b6565b90505f8111801561262057505f8260010154115b156126415760018201546126348b836155c9565b61263e91906155e0565b98505b50505b5f8a8152600f602090815260408083206001600160a01b03808e16855292529091205460028401549091161580159061267c57505f81115b156126bc575f8b8152600c602052604090206002810154156126ba5780600201548284606001516126ad91906155c9565b6126b791906155e0565b97505b505b866126c7898b615345565b6126d19190615345565b95505050505b9295509295509295565b6126ec848484610caa565b610d2d33858585856134de565b612701612b01565b612709612b38565b5f82815260096020526040902060028101546001600160a01b03166127445760405163c66c0c6d60e01b815260066004820152602401610988565b60038101541561276a5760405163c66c0c6d60e01b815260026004820152602401610988565b815f0361278d57604051635f3b45f360e01b815260016004820152602401610988565b60028101546040516323b872dd60e01b8152336004820152306024820152604481018490526001600160a01b03909116906323b872dd906064016020604051808303815f875af11580156127e3573d5f803e3d5ffd5b505050506040513d601f19601f820116820180604052508101906128079190615316565b6128265760405163dc7ce3bb60e01b81525f6004820152602401610988565b5f838152600f602090815260408083203384529091528120805484929061284e908490615345565b90915550505f838152600c6020526040812060028101805491928592612875908490615345565b90915550506002810154604080518581526020810192909252339186917f635cc45e10ff7d1ca53f407194afa4f58f81638be81b3615362cbab3a10463dc910160405180910390a35f6128c86001613339565b90505f6064605583602001516128de91906155c9565b6128e9906032615345565b6128f391906155e0565b90505f8184600101541015905080801561291557508460040154846002015410155b156129235761292387613606565b505050505061092060015f805160206158ed83398151915255565b606061294982612a84565b505f6129536136b0565b90505f8151116129715760405180602001604052805f81525061299c565b8061297b8461373f565b60405160200161298c9291906155ff565b6040516020818303038152906040525b9392505050565b5f8054612458906152cb565b6001600160a01b039182165f9081527f80bb2b638cc20bc4d0a60d66940f3ab4a00c1d7b313497ca82fb0b4ab00793056020908152604080832093909416825291909152205460ff1690565b612a03612b7b565b6001600160a01b038116612a2c57604051631e4fbdf760e01b81525f6004820152602401610988565b610b80816132c9565b5f6001600160e01b031982166380ac58cd60e01b1480612a6557506001600160e01b03198216635b5e139f60e01b145b8061085a57506301ffc9a760e01b6001600160e01b031983161461085a565b5f80612a8f836137ce565b90506001600160a01b03811661085a57604051637e27328960e01b815260048101849052602401610988565b5f9081527f80bb2b638cc20bc4d0a60d66940f3ab4a00c1d7b313497ca82fb0b4ab007930460205260409020546001600160a01b031690565b6115c68383836001613807565b5f805160206158ed833981519152805460011901612b3257604051633ee5aeb560e01b815260040160405180910390fd5b60029055565b5f805160206158cd8339815191525460ff16156115aa5760405163d93c066560e01b815260040160405180910390fd5b60015f805160206158ed83398151915255565b33612bad7f9016d09d72d40fdae2fd8ceac6b6234c7706214fd39c1cd1e609a0528c199300546001600160a01b031690565b6001600160a01b0316146115aa5760405163118cdaa760e01b8152336004820152602401610988565b5f80612be385858561391a565b90506001600160a01b038116612c6a57612c65845f805160206158ad83398151915280545f8381527f645e039705490088daad89bae25049a34f4a9072d398537b1ab2425f24cbed0360205260408120829055600182018355919091527fa42f15e5d656f8155fd7419d740a6073999f19cd6e061449ce4a257150545bf20155565b612c8d565b846001600160a01b0316816001600160a01b031614612c8d57612c8d8185613a1c565b6001600160a01b038516612ca957612ca484613ab3565b612ccc565b846001600160a01b0316816001600160a01b031614612ccc57612ccc8585613b80565b949350505050565b6001600160a01b038216612cfd57604051633250574960e11b81525f6004820152602401610988565b5f612d0983835f612bd6565b90506001600160a01b038116156115c6576040516339e3563760e11b81525f6004820152602401610988565b5f61085a825f613bd8565b5f82421115612d655760405163c66c0c6d60e01b815260056004820152602401610988565b6001600160a01b038416612d8f57604051635f3b45f360e01b815260026004820152602401610988565b5f878152600960205260409020600381015415612dc15760405163c66c0c6d60e01b8152600481810152602401610988565b80546001600160a01b0316612deb57604051635f3b45f360e01b81525f6004820152602401610988565b5f888152600c602052604081206002830154909190612e14906001600160a01b03161515613339565b6001808501546001600160a01b03165f9081526010602090815260408083208151606081018352815460ff161515815294810154928501929092526002909101549083018190529293509091670de0b6b3a764000090612e74908d6155c9565b612e7e91906155e0565b600754600186015460208601516040516310d26b5560e31b815260048101859052602481019290925260448201529192506001600160a01b0316906386935aa890606401602060405180830381865afa158015612edd573d5f803e3d5ffd5b505050506040513d601f19601f82011682018060405250810190612f019190615358565b955089861015612f2757604051633071a1fd60e21b815260016004820152602401610988565b83600101548360200151612f3b91906155b6565b861115612f5e57604051633071a1fd60e21b815260026004820152602401610988565b86612ffc5760018501546040516323b872dd60e01b8152336004820152306024820152604481018d90526001600160a01b03909116906323b872dd906064016020604051808303815f875af1158015612fb9573d5f803e3d5ffd5b505050506040513d601f19601f82011682018060405250810190612fdd9190615316565b612ffc5760405163dc7ce3bb60e01b81525f6004820152602401610988565b8a845f015f82825461300e9190615345565b9250508190555085846001015f8282546130289190615345565b90915550505f8c8152600d602090815260408083206001600160a01b038d1684529091528120805488929061305e908490615345565b9091555050604080518c8152602081018890526001600160a01b038b16918e917fe8d7e55108ae7ddb60173461d2950c7a8e22a7ac7f442825564fe84c8c6f9a38910160405180910390a35f6064605585602001516130bd91906155c9565b6130c8906032615345565b6130d291906155e0565b6001808701546002890154929350831115916001600160a01b0316158015906130fe57505f8860040154115b1561311157506004870154600287015410155b81801561311b5750805b15613129576131298f613606565b50505050505050509695505050505050565b5f807ff0c57e16840df040f15088dc2f81fe391c3923bec73e23a9662efc9c229c6a0061085a565b61316b613c6c565b6109208282613c91565b6115aa613c6c565b613185613c6c565b610b8081613cc1565b613196613c6c565b6115aa613cc9565b6131a6613cd1565b5f805160206158cd833981519152805460ff191681557f5db9ee0a495bf2e6ff9c91a7834c1ba4fdd244a5e8aa4e537bd38aeae4b073aa335b6040516001600160a01b03909116815260200160405180910390a150565b5f80826001600160a01b0316846001600160a01b03161015613223575082905081611c00565b5081905082611c00565b6040805160a0810182525f80825260208201819052918101829052606081018290526080810191909152816001600160a01b0316836001600160a01b03161061328c57604051635f3b45f360e01b815260076004820152602401610988565b506040805160a0810182526001600160a01b03938416815291831660208301526280000090820152603c6060820152600554909116608082015290565b7f9016d09d72d40fdae2fd8ceac6b6234c7706214fd39c1cd1e609a0528c19930080546001600160a01b031981166001600160a01b03848116918217845560405192169182907f8be0079c531659141344cd1fd0a4f28419497f9722a3daafe3b4186f6b6457e0905f90a3505050565b61336060405180608001604052805f81526020015f81526020015f81526020015f81525090565b81156133ad576b0113ba1430a5432dc03400008082526a89dd0a1162463d0c6800006020830181905260408301919091526133a390671bc16d674ec80000615345565b6060820152919050565b6b0113ba1430a5432dc0340000808252602082018190526133d690670de0b6b3a7640000615345565b60408201525f60608201525b919050565b6133ef612b38565b5f805160206158cd833981519152805460ff191660011781557f62e78cea01bee320cd4e420270b5ea74000d11b0c9f74754ebdbfc544b05a258336131df565b5f8051602061588d8339815191526001600160a01b03831661346f57604051630b61174360e31b81526001600160a01b0384166004820152602401610988565b6001600160a01b038481165f818152600584016020908152604080832094881680845294825291829020805460ff191687151590811790915591519182527f17307eab39ab6107e8899845ad3d59bd9653f200f220920489ca2b5937696c31910160405180910390a350505050565b6001600160a01b0383163b156135ff57604051630a85bd0160e11b81526001600160a01b0384169063150b7a0290613520908890889087908790600401615613565b6020604051808303815f875af192505050801561355a575060408051601f3d908101601f1916820190925261355791810190615645565b60015b6135c1573d808015613587576040519150601f19603f3d011682016040523d82523d5f602084013e61358c565b606091505b5080515f036135b957604051633250574960e11b81526001600160a01b0385166004820152602401610988565b805160208201fd5b6001600160e01b03198116630a85bd0160e11b146135fd57604051633250574960e11b81526001600160a01b0385166004820152602401610988565b505b5050505050565b5f8181526009602052604090206003810154156136395760405163c66c0c6d60e01b815260076004820152602401610988565b42600382015561364882613d00565b61365182613ea4565b5f828152600c60209081526040918290206005840154815460018301548551918252938101939093529092909185917f36fe3c81d4c8d71005b5e7c8ea6075adfdf404e33c5f2759ad20bd56b98cce5b910160405180910390a3505050565b60605f80546136be906152cb565b80601f01602080910402602001604051908101604052809291908181526020018280546136ea906152cb565b80156137355780601f1061370c57610100808354040283529160200191613735565b820191905f5260205f20905b81548152906001019060200180831161371857829003601f168201915b5050505050905090565b60605f61374b83614319565b60010190505f816001600160401b0381111561376957613769614e13565b6040519080825280601f01601f191660200182016040528015613793576020820181803683370190505b5090508181016020015b5f19016f181899199a1a9b1b9c1cb0b131b232b360811b600a86061a8153600a850494508461379d57509392505050565b5f9081527f80bb2b638cc20bc4d0a60d66940f3ab4a00c1d7b313497ca82fb0b4ab007930260205260409020546001600160a01b031690565b5f8051602061588d833981519152818061382957506001600160a01b03831615155b156138ea575f61383885612a84565b90506001600160a01b038416158015906138645750836001600160a01b0316816001600160a01b031614155b8015613877575061387581856129af565b155b156138a05760405163a9fbf51f60e01b81526001600160a01b0385166004820152602401610988565b82156138e85784866001600160a01b0316826001600160a01b03167f8c5be1e5ebec7d5bd14f71427d1e84f3dd0314c0f7b2291e5b200ac8c7c3b92560405160405180910390a45b505b5f93845260040160205250506040902080546001600160a01b0319166001600160a01b0392909216919091179055565b5f5f8051602061588d83398151915281613933856137ce565b90506001600160a01b0384161561394f5761394f8185876143f0565b6001600160a01b0381161561398b5761396a5f865f80613807565b6001600160a01b0381165f908152600383016020526040902080545f190190555b6001600160a01b038616156139bb576001600160a01b0386165f9081526003830160205260409020805460010190555b5f85815260028301602052604080822080546001600160a01b0319166001600160a01b038a811691821790925591518893918516917fddf252ad1be2c89b69c2b068fc378daa952ba7f163c4a11628f55a4df523b3ef91a495945050505050565b5f8051602061586d8339815191525f613a3484611e08565b5f8481526001840160209081526040808320546001600160a01b03891684529186905290912091925090818314613a8c575f838152602082815260408083205485845281842081905583526001870190915290208290555b5f948552600190930160209081526040808620869055928552929092528220919091555050565b5f805160206158ad833981519152545f8051602061586d833981519152905f90613adf906001906155b6565b5f848152600384016020526040812054600285018054939450909284908110613b0a57613b0a615405565b905f5260205f200154905080846002018381548110613b2b57613b2b615405565b5f91825260208083209091019290925582815260038601909152604080822084905586825281205560028401805480613b6657613b66615660565b600190038181905f5260205f20015f905590555050505050565b5f8051602061586d8339815191525f6001613b9a85611e08565b613ba491906155b6565b6001600160a01b039094165f9081526020838152604080832087845282528083208690559482526001909301909252502055565b5f81471015613c035760405163cf47918160e01b815247600482015260248101839052604401610988565b763d602d80600a3d3981f3363d3d373d3d3d363d730000008360601b60e81c175f526e5af43d82803e903d91602b57fd5bf38360781b176020526037600983f090506001600160a01b03811661085a5760405163b06ebf3d60e01b815260040160405180910390fd5b613c74614446565b6115aa57604051631afcd79f60e31b815260040160405180910390fd5b613c99613c6c565b5f8051602061588d83398151915280613cb2848261545d565b5060018101610d2d838261545d565b612a03613c6c565b612b68613c6c565b5f805160206158cd8339815191525460ff166115aa57604051638dfc202b60e01b815260040160405180910390fd5b5f8181526009602052604081206002810154909190613d29906001600160a01b03161515613339565b8254600154604080840151905163a9059cbb60e01b81529394506001600160a01b039283169363a9059cbb93613d64931691906004016152fd565b6020604051808303815f875af1158015613d80573d5f803e3d5ffd5b505050506040513d601f19601f82011682018060405250810190613da49190615316565b505f838152600c6020526040902060028301546001600160a01b031615801590613dd157505f8160020154115b15613e525760028084015484549183015460405163a9059cbb60e01b81526001600160a01b039283169363a9059cbb93613e10939116916004016152fd565b6020604051808303815f875af1158015613e2c573d5f803e3d5ffd5b505050506040513d601f19601f82011682018060405250810190613e509190615316565b505b6040808301518351606080860151845193845260208401929092529282015285917f1c64838894778f04d06880daeba52561418b6fefbc48e591824147c13cd18859910160405180910390a250505050565b5f818152600960209081526040808320600c909252822081546001830154929391928291613ede916001600160a01b0391821691166131fd565b915091505f613eed838361322d565b604080515f808252602082019092526001880154885493945090926001600160a01b03918216911610613f21578554613f2f565b6b0113ba1430a5432dc03400005b600188015488549192505f916001600160a01b03918216911610613f5f576b0113ba1430a5432dc0340000613f62565b86545b90505f613f6f838361445f565b90505f613f9682613f83620d89b3196144db565b613f8f620d89b46144db565b8787614793565b90505f80613fba88620d89b319620d89b4866001600160801b03168a8a308e614852565b604080516002808252606082019092529294509092505f9190816020015b6060815260200190600190039081613fd857505060405190915063f702040560e01b9061400d908b9088908c906024016156b7565b604051602081830303815290604052906001600160e01b0319166020820180516001600160e01b038381831617835250505050815f8151811061405257614052615405565b60209081029190910181019190915260405163dd46508f60e01b9161407b918691869101615571565b60408051601f1981840301815291905261409742610e10615345565b6040516024016140a8929190615595565b604051602081830303815290604052906001600160e01b0319166020820180516001600160e01b038381831617835250505050816001815181106140ee576140ee615405565b6020908102919091010152600480548e546003546040516387517c4560e01b81526001600160a01b0392831694810194909452811660248401526044830181905265ffffffffffff606484015216906387517c45906084015f604051808303815f87803b15801561415d575f80fd5b505af115801561416f573d5f803e3d5ffd5b5050505060045f9054906101000a90046001600160a01b03166001600160a01b03166387517c458e6001015f9054906101000a90046001600160a01b031660035f9054906101000a90046001600160a01b03166001600160a01b0365ffffffffffff6040518563ffffffff1660e01b815260040161421d94939291906001600160a01b03948516815292841660208401529216604082015265ffffffffffff91909116606082015260800190565b5f604051808303815f87803b158015614234575f80fd5b505af1158015614246573d5f803e3d5ffd5b5050600354604051631592ca1b60e31b81526001600160a01b03909116925063ac9650d891505f9061427c9085906004016156e7565b5f6040518083038185885af1158015614297573d5f803e3d5ffd5b50505050506040513d5f823e601f3d908101601f191682016040526142bf91908101906156f9565b5060a0892060058e018190556040516001600160801b03861681528f907f858282f6efb86991a3c98091f65c0ff0f17b056c64d58ba284d7f1dd5e3e2bd29060200160405180910390a35050505050505050505050505050565b5f8072184f03e93ff9f4daa797ed6e38ed64bf6a1f0160401b83106143575772184f03e93ff9f4daa797ed6e38ed64bf6a1f0160401b830492506040015b6d04ee2d6d415b85acef81000000008310614383576d04ee2d6d415b85acef8100000000830492506020015b662386f26fc1000083106143a157662386f26fc10000830492506010015b6305f5e10083106143b9576305f5e100830492506008015b61271083106143cd57612710830492506004015b606483106143df576064830492506002015b600a831061085a5760010192915050565b6143fb838383614a20565b6115c6576001600160a01b03831661442957604051637e27328960e01b815260048101829052602401610988565b818160405163177e802f60e01b81526004016109889291906152fd565b5f61444f61313b565b54600160401b900460ff16919050565b5f825f0361448357604051635f3b45f360e01b815260016004820152602401610988565b5f61449284606085901b6155e0565b90505f61449e82614a84565b9050603081901b9250826001600160a01b03165f036144d357604051635f3b45f360e01b815260066004820152602401610988565b505092915050565b60020b5f60ff82901d80830118620d89e8811115614504576145046345c3193d60e11b84614ae9565b7001fffcb933bd6fad37aa2d162d1a5940016001821602600160801b186002821615614540576ffff97272373d413259a46990580e213a0260801c5b600482161561455f576ffff2e50f5f656932ef12357cf3c7fdcc0260801c5b600882161561457e576fffe5caca7e10e4e61c3624eaa0941cd00260801c5b601082161561459d576fffcb9843d60f6159c9db58835c9266440260801c5b60208216156145bc576fff973b41fa98c081472e6896dfb254c00260801c5b60408216156145db576fff2ea16466c96a3843ec78b326b528610260801c5b60808216156145fa576ffe5dee046a99a2a811c461f1969c30530260801c5b61010082161561461a576ffcbe86c7900a88aedcffc83b479aa3a40260801c5b61020082161561463a576ff987a7253ac413176f2b074cf7815e540260801c5b61040082161561465a576ff3392b0822b70005940c7a398e4b70f30260801c5b61080082161561467a576fe7159475a2c29b7443b29c7fa6e889d90260801c5b61100082161561469a576fd097f3bdfd2022b8845ad8f792aa58250260801c5b6120008216156146ba576fa9f746462d870fdf8a65dc1f90e061e50260801c5b6140008216156146da576f70d869a156d2a1b890bb3df62baf32f70260801c5b6180008216156146fa576f31be135f97d08fd981231505542fcfa60260801c5b6201000082161561471b576f09aa508b5b7a84e1c677de54f3e99bc90260801c5b6202000082161561473b576e5d6af8dedb81196699c329225ee6040260801c5b6204000082161561475a576d2216e584f5fa1ea926041bedfe980260801c5b62080000821615614777576b048a170391f7dc42444e8fa20260801c5b5f841315614783575f19045b63ffffffff0160201c9392505050565b5f836001600160a01b0316856001600160a01b031611156147b2579293925b846001600160a01b0316866001600160a01b0316116147dd576147d6858585614af8565b9050612213565b836001600160a01b0316866001600160a01b0316101561483d575f614803878686614af8565b90505f614811878986614b60565b9050806001600160801b0316826001600160801b0316106148325780614834565b815b92505050612213565b614848858584614b60565b9695505050505050565b60408051600160f91b6020820152600d60f81b6021820152600560fa1b60228201819052602382015281516004818303810182526024830181815260c4840190945260609384935f92906044015b60608152602001906001900390816148a05790505090508b8b8b8b8b8b8b8b6040516020016148d69897969594939291906157e8565b604051602081830303815290604052815f815181106148f7576148f7615405565b60200260200101819052508b5f01518c602001516040516020016149319291906001600160a01b0392831681529116602082015260400190565b6040516020818303038152906040528160018151811061495357614953615405565b60200260200101819052508b5f0151866040516020016149899291906001600160a01b0392831681529116602082015260400190565b604051602081830303815290604052816002815181106149ab576149ab615405565b60200260200101819052508b60200151866040516020016149e29291906001600160a01b0392831681529116602082015260400190565b60405160208183030381529060405281600381518110614a0457614a04615405565b6020908102919091010152909b909a5098505050505050505050565b5f6001600160a01b03831615801590612ccc5750826001600160a01b0316846001600160a01b03161480614a595750614a5984846129af565b80612ccc5750826001600160a01b0316614a7283612abb565b6001600160a01b031614949350505050565b5f815f03614a9357505f919050565b50805f6002614aa3836001615345565b614aad91906155e0565b90505b81811015614ae357905080600281614ac881866155e0565b614ad29190615345565b614adc91906155e0565b9050614ab0565b50919050565b815f528060020b60045260245ffd5b5f826001600160a01b0316846001600160a01b03161115614b17579192915b5f614b39856001600160a01b0316856001600160a01b0316600160601b614b95565b9050612213614b5b8483614b4d898961584d565b6001600160a01b0316614b95565b614c31565b5f826001600160a01b0316846001600160a01b03161115614b7f579192915b612ccc614b5b83600160601b614b4d888861584d565b5f838302815f1985870982811083820303915050808411614bb4575f80fd5b805f03614bc65750829004905061299c565b5f848688095f868103871696879004966002600389028118808a02820302808a02820302808a02820302808a02820302808a02820302808a02909103029181900381900460010186841190950394909402919094039290920491909117919091029150509392505050565b806001600160801b03811681146133e25760405162461bcd60e51b81526020600482015260126024820152716c6971756964697479206f766572666c6f7760701b6044820152606401610988565b6001600160e01b031981168114610b80575f80fd5b5f60208284031215614ca4575f80fd5b813561299c81614c7f565b5f81518084528060208401602086015e5f602082860101526020601f19601f83011685010191505092915050565b602081525f61299c6020830184614caf565b5f60208284031215614cff575f80fd5b5035919050565b80356001600160a01b03811681146133e2575f80fd5b5f8060408385031215614d2d575f80fd5b614d3683614d06565b946020939093013593505050565b8015158114610b80575f80fd5b5f805f8060808587031215614d64575f80fd5b614d6d85614d06565b935060208501359250604085013591506060850135614d8b81614d44565b939692955090935050565b5f8060408385031215614da7575f80fd5b82359150614db760208401614d06565b90509250929050565b5f60208284031215614dd0575f80fd5b61299c82614d06565b5f805f60608486031215614deb575f80fd5b614df484614d06565b9250614e0260208501614d06565b929592945050506040919091013590565b634e487b7160e01b5f52604160045260245ffd5b604051601f8201601f191681016001600160401b0381118282101715614e4f57614e4f614e13565b604052919050565b5f6001600160401b03821115614e6f57614e6f614e13565b50601f01601f191660200190565b5f614e8f614e8a84614e57565b614e27565b9050828152838383011115614ea2575f80fd5b828260208301375f602084830101529392505050565b5f82601f830112614ec7575f80fd5b61299c83833560208501614e7d565b5f805f805f805f60e0888a031215614eec575f80fd5b614ef588614d06565b965060208801356001600160401b03811115614f0f575f80fd5b614f1b8a828b01614eb8565b96505060408801356001600160401b03811115614f36575f80fd5b614f428a828b01614eb8565b9550506060880135935060808801359250614f5f60a08901614d06565b96999598509396929591949193505060c09091013590565b5f805f805f805f60e0888a031215614f8d575f80fd5b614f9688614d06565b9650614fa460208901614d06565b9550614fb260408901614d06565b9450614fc060608901614d06565b9350614fce60808901614d06565b9250614fdc60a08901614d06565b9150614fea60c08901614d06565b905092959891949750929550565b5f6001600160401b0382111561501057615010614e13565b5060051b60200190565b5f82601f830112615029575f80fd5b8135615037614e8a82614ff8565b8082825260208201915060208360051b860101925085831115615058575f80fd5b602085015b838110156150985780356001600160401b0381111561507a575f80fd5b615089886020838a0101614eb8565b8452506020928301920161505d565b5095945050505050565b5f805f606084860312156150b4575f80fd5b8335925060208401356001600160401b038111156150d0575f80fd5b8401601f810186136150e0575f80fd5b80356150ee614e8a82614ff8565b8082825260208201915060208360051b85010192508883111561510f575f80fd5b6020840193505b82841015615131578335825260209384019390910190615116565b945050505060408401356001600160401b0381111561514e575f80fd5b61515a8682870161501a565b9150509250925092565b5f60208284031215615174575f80fd5b81356001600160401b03811115615189575f80fd5b612ccc84828501614eb8565b5f805f805f60a086880312156151a9575f80fd5b8535945060208601359350604086013592506151c760608701614d06565b949793965091946080013592915050565b5f80604083850312156151e9575f80fd5b50508035926020909101359150565b5f8060408385031215615209575f80fd5b61521283614d06565b9150602083013561522281614d44565b809150509250929050565b5f805f8060808587031215615240575f80fd5b61524985614d06565b935061525760208601614d06565b92506040850135915060608501356001600160401b03811115615278575f80fd5b8501601f81018713615288575f80fd5b61529787823560208401614e7d565b91505092959194509250565b5f80604083850312156152b4575f80fd5b6152bd83614d06565b9150614db760208401614d06565b600181811c908216806152df57607f821691505b602082108103614ae357634e487b7160e01b5f52602260045260245ffd5b6001600160a01b03929092168252602082015260400190565b5f60208284031215615326575f80fd5b815161299c81614d44565b634e487b7160e01b5f52601160045260245ffd5b8082018082111561085a5761085a615331565b5f60208284031215615368575f80fd5b5051919050565b5f6001820161538057615380615331565b5060010190565b5f81518060208401855e5f93019283525090919050565b5f6153a98284615387565b652e616d69636160d01b81526006019392505050565b608081525f6153d16080830187614caf565b82810360208401526153e38187614caf565b604084019590955250506001600160a01b039190911660609091015292915050565b634e487b7160e01b5f52603260045260245ffd5b601f8211156115c657805f5260205f20601f840160051c8101602085101561543e5750805b601f840160051c820191505b818110156135ff575f815560010161544a565b81516001600160401b0381111561547657615476614e13565b61548a8161548484546152cb565b84615419565b6020601f8211600181146154bc575f83156154a55750848201515b5f19600385901b1c1916600184901b1784556135ff565b5f84815260208120601f198516915b828110156154eb57878501518255602094850194600190920191016154cb565b508482101561550857868401515f19600387901b60f8161c191681555b50505050600190811b01905550565b5f82825180855260208501945060208160051b830101602085015f5b8381101561556557601f1985840301885261554f838351614caf565b6020988901989093509190910190600101615533565b50909695505050505050565b604081525f6155836040830185614caf565b82810360208401526122138185615517565b604081525f6155a76040830185614caf565b90508260208301529392505050565b8181038181111561085a5761085a615331565b808202811582820484141761085a5761085a615331565b5f826155fa57634e487b7160e01b5f52601260045260245ffd5b500490565b5f612ccc61560d8386615387565b84615387565b6001600160a01b03858116825284166020820152604081018390526080606082018190525f9061484890830184614caf565b5f60208284031215615655575f80fd5b815161299c81614c7f565b634e487b7160e01b5f52603160045260245ffd5b80516001600160a01b03908116835260208083015182169084015260408083015162ffffff169084015260608083015160020b9084015260809182015116910152565b6156c18185615674565b6001600160a01b03831660a082015260e060c082018190525f9061221390830184614caf565b602081525f61299c6020830184615517565b5f60208284031215615709575f80fd5b81516001600160401b0381111561571e575f80fd5b8201601f8101841361572e575f80fd5b805161573c614e8a82614ff8565b8082825260208201915060208360051b85010192508683111561575d575f80fd5b602084015b838110156157dd5780516001600160401b0381111561577f575f80fd5b8501603f8101891361578f575f80fd5b60208101516157a0614e8a82614e57565b8181526040838301018b10156157b4575f80fd5b8160408401602083015e5f60208383010152808652505050602083019250602081019050615762565b509695505050505050565b6157f2818a615674565b8760020b60a08201528660020b60c08201528560e0820152846101008201528361012082015260018060a01b0383166101408201526101806101608201525f61583f610180830184614caf565b9a9950505050505050505050565b6001600160a01b03828116828216039081111561085a5761085a61533156fe645e039705490088daad89bae25049a34f4a9072d398537b1ab2425f24cbed0080bb2b638cc20bc4d0a60d66940f3ab4a00c1d7b313497ca82fb0b4ab0079300645e039705490088daad89bae25049a34f4a9072d398537b1ab2425f24cbed02cd5ed15c6e187e77e9aee88184c21f4f2182ab5827cb3b7e07fbedcd63f033009b779b17422d0df92223018b32b4d1fa46e071723d6817e2486d003becc55f00a2646970667358221220064880f8694f13412e97412980cb6420a03f1e663f31c94a9bf419216e9b4e8d64736f6c634300081a0033","linkReferences":{}},"methodIdentifiers":{"agentDeposits(uint256,address)":"13ee32be","amicaToken()":"a04e401a","approve(address,uint256)":"095ea7b3","balanceOf(address)":"70a08231","baseTokenURI()":"d547cfb7","bondingBalances(uint256,address)":"4b3eacf3","bondingCurve()":"eff1d50e","claimRewards(uint256)":"0962ef79","collectFees(uint256,address)":"51f3b4bd","configurePairingToken(address,uint256,uint256,bool)":"11d8c69b","createPersona(address,string,string,bytes32,uint256,address,uint256)":"2d8651ac","depositAgentTokens(uint256,uint256)":"c24f88e3","domains(bytes32)":"c722f177","dynamicFeeHook()":"157e6464","getApproved(uint256)":"081812fc","getClaimableRewards(uint256,address)":"ab60df90","hasClaimedTokens(uint256,address)":"be78533f","initialize(address,address,address,address,address,address,address)":"35876476","isApprovedForAll(address,address)":"e985e9c5","isValidSubdomain(bytes32)":"61817c64","metadata(uint256,bytes32)":"a575f120","name()":"06fdde03","owner()":"8da5cb5b","ownerOf(uint256)":"6352211e","pairingConfigs(address)":"2330cb31","pause()":"8456cb59","paused()":"5c975abb","personaTokenImplementation()":"77974f11","personas(uint256)":"40291e6a","poolManager()":"dc4c90d3","positionManager()":"791b98bc","preGraduationStates(uint256)":"8b40d243","renounceOwnership()":"715018a6","safeTransferFrom(address,address,uint256)":"42842e0e","safeTransferFrom(address,address,uint256,bytes)":"b88d4fde","setApprovalForAll(address,bool)":"a22cb465","setBaseURI(string)":"55f804b3","supportsInterface(bytes4)":"01ffc9a7","swapExactTokensForPairingTokens(uint256,uint256,uint256,address,uint256)":"717e4742","swapExactTokensForTokens(uint256,uint256,uint256,address,uint256)":"a936da68","symbol()":"95d89b41","tokenByIndex(uint256)":"4f6ccce7","tokenOfOwnerByIndex(address,uint256)":"2f745c59","tokenURI(uint256)":"c87b56dd","totalSupply()":"18160ddd","transferFrom(address,address,uint256)":"23b872dd","transferOwnership(address)":"f2fde38b","unpause()":"3f4ba83a","updateMetadata(uint256,bytes32[],string[])":"498307ce","withdrawAgentTokens(uint256,uint256)":"8da9c676"},"storageLayout":{"storage":[{"astId":84584,"contract":"src/PersonaTokenFactory.sol:PersonaTokenFactory","label":"baseTokenURI","offset":0,"slot":"0","type":"t_string_storage"},{"astId":84588,"contract":"src/PersonaTokenFactory.sol:PersonaTokenFactory","label":"amicaToken","offset":0,"slot":"1","type":"t_contract(IERC20)45019"},{"astId":84592,"contract":"src/PersonaTokenFactory.sol:PersonaTokenFactory","label":"poolManager","offset":0,"slot":"2","type":"t_contract(IPoolManager)59113"},{"astId":84596,"contract":"src/PersonaTokenFactory.sol:PersonaTokenFactory","label":"positionManager","offset":0,"slot":"3","type":"t_contract(IPositionManager)76891"},{"astId":84599,"contract":"src/PersonaTokenFactory.sol:PersonaTokenFactory","label":"permit2","offset":0,"slot":"4","type":"t_contract(IPermit2)72742"},{"astId":84602,"contract":"src/PersonaTokenFactory.sol:PersonaTokenFactory","label":"dynamicFeeHook","offset":0,"slot":"5","type":"t_address"},{"astId":84605,"contract":"src/PersonaTokenFactory.sol:PersonaTokenFactory","label":"personaTokenImplementation","offset":0,"slot":"6","type":"t_address"},{"astId":84609,"contract":"src/PersonaTokenFactory.sol:PersonaTokenFactory","label":"bondingCurve","offset":0,"slot":"7","type":"t_contract(IBondingCurve)87569"},{"astId":84612,"contract":"src/PersonaTokenFactory.sol:PersonaTokenFactory","label":"_currentTokenId","offset":0,"slot":"8","type":"t_uint256"},{"astId":84618,"contract":"src/PersonaTokenFactory.sol:PersonaTokenFactory","label":"personas","offset":0,"slot":"9","type":"t_mapping(t_uint256,t_struct(PersonaData)84555_storage)"},{"astId":84625,"contract":"src/PersonaTokenFactory.sol:PersonaTokenFactory","label":"metadata","offset":0,"slot":"10","type":"t_mapping(t_uint256,t_mapping(t_bytes32,t_string_storage))"},{"astId":84630,"contract":"src/PersonaTokenFactory.sol:PersonaTokenFactory","label":"domains","offset":0,"slot":"11","type":"t_mapping(t_bytes32,t_uint256)"},{"astId":84636,"contract":"src/PersonaTokenFactory.sol:PersonaTokenFactory","label":"preGraduationStates","offset":0,"slot":"12","type":"t_mapping(t_uint256,t_struct(PreGraduationState)84571_storage)"},{"astId":84643,"contract":"src/PersonaTokenFactory.sol:PersonaTokenFactory","label":"bondingBalances","offset":0,"slot":"13","type":"t_mapping(t_uint256,t_mapping(t_address,t_uint256))"},{"astId":84650,"contract":"src/PersonaTokenFactory.sol:PersonaTokenFactory","label":"hasClaimedTokens","offset":0,"slot":"14","type":"t_mapping(t_uint256,t_mapping(t_address,t_bool))"},{"astId":84657,"contract":"src/PersonaTokenFactory.sol:PersonaTokenFactory","label":"agentDeposits","offset":0,"slot":"15","type":"t_mapping(t_uint256,t_mapping(t_address,t_uint256))"},{"astId":84663,"contract":"src/PersonaTokenFactory.sol:PersonaTokenFactory","label":"pairingConfigs","offset":0,"slot":"16","type":"t_mapping(t_address,t_struct(PairingConfig)84563_storage)"}],"types":{"t_address":{"encoding":"inplace","label":"address","numberOfBytes":"20"},"t_bool":{"encoding":"inplace","label":"bool","numberOfBytes":"1"},"t_bytes32":{"encoding":"inplace","label":"bytes32","numberOfBytes":"32"},"t_contract(IBondingCurve)87569":{"encoding":"inplace","label":"contract IBondingCurve","numberOfBytes":"20"},"t_contract(IERC20)45019":{"encoding":"inplace","label":"contract IERC20","numberOfBytes":"20"},"t_contract(IPermit2)72742":{"encoding":"inplace","label":"contract IPermit2","numberOfBytes":"20"},"t_contract(IPoolManager)59113":{"encoding":"inplace","label":"contract IPoolManager","numberOfBytes":"20"},"t_contract(IPositionManager)76891":{"encoding":"inplace","label":"contract IPositionManager","numberOfBytes":"20"},"t_mapping(t_address,t_bool)":{"encoding":"mapping","key":"t_address","label":"mapping(address => bool)","numberOfBytes":"32","value":"t_bool"},"t_mapping(t_address,t_struct(PairingConfig)84563_storage)":{"encoding":"mapping","key":"t_address","label":"mapping(address => struct PersonaTokenFactory.PairingConfig)","numberOfBytes":"32","value":"t_struct(PairingConfig)84563_storage"},"t_mapping(t_address,t_uint256)":{"encoding":"mapping","key":"t_address","label":"mapping(address => uint256)","numberOfBytes":"32","value":"t_uint256"},"t_mapping(t_bytes32,t_string_storage)":{"encoding":"mapping","key":"t_bytes32","label":"mapping(bytes32 => string)","numberOfBytes":"32","value":"t_string_storage"},"t_mapping(t_bytes32,t_uint256)":{"encoding":"mapping","key":"t_bytes32","label":"mapping(bytes32 => uint256)","numberOfBytes":"32","value":"t_uint256"},"t_mapping(t_uint256,t_mapping(t_address,t_bool))":{"encoding":"mapping","key":"t_uint256","label":"mapping(uint256 => mapping(address => bool))","numberOfBytes":"32","value":"t_mapping(t_address,t_bool)"},"t_mapping(t_uint256,t_mapping(t_address,t_uint256))":{"encoding":"mapping","key":"t_uint256","label":"mapping(uint256 => mapping(address => uint256))","numberOfBytes":"32","value":"t_mapping(t_address,t_uint256)"},"t_mapping(t_uint256,t_mapping(t_bytes32,t_string_storage))":{"encoding":"mapping","key":"t_uint256","label":"mapping(uint256 => mapping(bytes32 => string))","numberOfBytes":"32","value":"t_mapping(t_bytes32,t_string_storage)"},"t_mapping(t_uint256,t_struct(PersonaData)84555_storage)":{"encoding":"mapping","key":"t_uint256","label":"mapping(uint256 => struct PersonaTokenFactory.PersonaData)","numberOfBytes":"32","value":"t_struct(PersonaData)84555_storage"},"t_mapping(t_uint256,t_struct(PreGraduationState)84571_storage)":{"encoding":"mapping","key":"t_uint256","label":"mapping(uint256 => struct PersonaTokenFactory.PreGraduationState)","numberOfBytes":"32","value":"t_struct(PreGraduationState)84571_storage"},"t_string_storage":{"encoding":"bytes","label":"string","numberOfBytes":"32"},"t_struct(PairingConfig)84563_storage":{"encoding":"inplace","label":"struct PersonaTokenFactory.PairingConfig","numberOfBytes":"96","members":[{"astId":84558,"contract":"src/PersonaTokenFactory.sol:PersonaTokenFactory","label":"enabled","offset":0,"slot":"0","type":"t_bool"},{"astId":84560,"contract":"src/PersonaTokenFactory.sol:PersonaTokenFactory","label":"mintCost","offset":0,"slot":"1","type":"t_uint256"},{"astId":84562,"contract":"src/PersonaTokenFactory.sol:PersonaTokenFactory","label":"pricingMultiplier","offset":0,"slot":"2","type":"t_uint256"}]},"t_struct(PersonaData)84555_storage":{"encoding":"inplace","label":"struct PersonaTokenFactory.PersonaData","numberOfBytes":"192","members":[{"astId":84543,"contract":"src/PersonaTokenFactory.sol:PersonaTokenFactory","label":"token","offset":0,"slot":"0","type":"t_address"},{"astId":84545,"contract":"src/PersonaTokenFactory.sol:PersonaTokenFactory","label":"pairToken","offset":0,"slot":"1","type":"t_address"},{"astId":84547,"contract":"src/PersonaTokenFactory.sol:PersonaTokenFactory","label":"agentToken","offset":0,"slot":"2","type":"t_address"},{"astId":84549,"contract":"src/PersonaTokenFactory.sol:PersonaTokenFactory","label":"graduationTimestamp","offset":0,"slot":"3","type":"t_uint256"},{"astId":84551,"contract":"src/PersonaTokenFactory.sol:PersonaTokenFactory","label":"agentTokenThreshold","offset":0,"slot":"4","type":"t_uint256"},{"astId":84554,"contract":"src/PersonaTokenFactory.sol:PersonaTokenFactory","label":"poolId","offset":0,"slot":"5","type":"t_userDefinedValueType(PoolId)70644"}]},"t_struct(PreGraduationState)84571_storage":{"encoding":"inplace","label":"struct PersonaTokenFactory.PreGraduationState","numberOfBytes":"96","members":[{"astId":84566,"contract":"src/PersonaTokenFactory.sol:PersonaTokenFactory","label":"totalPairingTokensCollected","offset":0,"slot":"0","type":"t_uint256"},{"astId":84568,"contract":"src/PersonaTokenFactory.sol:PersonaTokenFactory","label":"tokensPurchased","offset":0,"slot":"1","type":"t_uint256"},{"astId":84570,"contract":"src/PersonaTokenFactory.sol:PersonaTokenFactory","label":"totalAgentDeposited","offset":0,"slot":"2","type":"t_uint256"}]},"t_uint256":{"encoding":"inplace","label":"uint256","numberOfBytes":"32"},"t_userDefinedValueType(PoolId)70644":{"encoding":"inplace","label":"PoolId","numberOfBytes":"32"}}},"id":209}